{
	"Voter.sol": {
		"Voter": {
			"abi": [
				{
					"inputs": [
						{
							"internalType": "string[]",
							"name": "_options",
							"type": "string[]"
						}
					],
					"stateMutability": "nonpayable",
					"type": "constructor"
				},
				{
					"inputs": [],
					"name": "getOptions",
					"outputs": [
						{
							"internalType": "string[]",
							"name": "",
							"type": "string[]"
						}
					],
					"stateMutability": "view",
					"type": "function"
				},
				{
					"inputs": [],
					"name": "getVotes",
					"outputs": [
						{
							"internalType": "uint256[]",
							"name": "",
							"type": "uint256[]"
						}
					],
					"stateMutability": "view",
					"type": "function"
				},
				{
					"inputs": [
						{
							"internalType": "uint256",
							"name": "",
							"type": "uint256"
						}
					],
					"name": "options",
					"outputs": [
						{
							"internalType": "string",
							"name": "",
							"type": "string"
						}
					],
					"stateMutability": "view",
					"type": "function"
				},
				{
					"inputs": [
						{
							"internalType": "uint256",
							"name": "option",
							"type": "uint256"
						}
					],
					"name": "vote",
					"outputs": [],
					"stateMutability": "nonpayable",
					"type": "function"
				},
				{
					"inputs": [
						{
							"internalType": "string",
							"name": "option",
							"type": "string"
						}
					],
					"name": "vote",
					"outputs": [],
					"stateMutability": "nonpayable",
					"type": "function"
				},
				{
					"inputs": [
						{
							"internalType": "uint256",
							"name": "",
							"type": "uint256"
						}
					],
					"name": "votes",
					"outputs": [
						{
							"internalType": "uint256",
							"name": "",
							"type": "uint256"
						}
					],
					"stateMutability": "view",
					"type": "function"
				}
			],
			"devdoc": {
				"kind": "dev",
				"methods": {},
				"version": 1
			},
			"evm": {
				"assembly": "    /* \"Voter.sol\":60:1391  contract Voter {... */\n  mstore(0x40, 0x80)\n    /* \"Voter.sol\":185:306  constructor(string[] memory _options) {... */\n  callvalue\n  dup1\n  iszero\n  tag_1\n  jumpi\n  revert(0x00, 0x00)\ntag_1:\n  pop\n  mload(0x40)\n  sub(codesize, bytecodeSize)\n  dup1\n  bytecodeSize\n  dup4\n  codecopy\n  dup2\n  dup2\n  add\n  0x40\n  mstore\n  dup2\n  add\n  swap1\n  tag_2\n  swap2\n  swap1\n  tag_3\n  jump\t// in\ntag_2:\n    /* \"Voter.sol\":244:252  _options */\n  dup1\n    /* \"Voter.sol\":234:241  options */\n  0x01\n    /* \"Voter.sol\":234:252  options = _options */\n  swap1\n  dup1\n  mload\n  swap1\n  0x20\n  add\n  swap1\n  tag_6\n  swap3\n  swap2\n  swap1\n  tag_7\n  jump\t// in\ntag_6:\n  pop\n    /* \"Voter.sol\":282:290  _options */\n  dup1\n    /* \"Voter.sol\":282:297  _options.length */\n  mload\n    /* \"Voter.sol\":271:298  new uint[](_options.length) */\n  0xffffffffffffffff\n  dup2\n  gt\n  iszero\n  tag_8\n  jumpi\n  tag_9\n  tag_10\n  jump\t// in\ntag_9:\ntag_8:\n  mload(0x40)\n  swap1\n  dup1\n  dup3\n  mstore\n  dup1\n  0x20\n  mul\n  0x20\n  add\n  dup3\n  add\n  0x40\n  mstore\n  dup1\n  iszero\n  tag_11\n  jumpi\n  dup2\n  0x20\n  add\n  0x20\n  dup3\n  mul\n  dup1\n  calldatasize\n  dup4\n  calldatacopy\n  dup1\n  dup3\n  add\n  swap2\n  pop\n  pop\n  swap1\n  pop\ntag_11:\n  pop\n    /* \"Voter.sol\":263:268  votes */\n  0x00\n    /* \"Voter.sol\":263:298  votes = new uint[](_options.length) */\n  swap1\n  dup1\n  mload\n  swap1\n  0x20\n  add\n  swap1\n  tag_12\n  swap3\n  swap2\n  swap1\n  tag_13\n  jump\t// in\ntag_12:\n  pop\n    /* \"Voter.sol\":185:306  constructor(string[] memory _options) {... */\n  pop\n    /* \"Voter.sol\":60:1391  contract Voter {... */\n  jump(tag_14)\ntag_7:\n  dup3\n  dup1\n  sload\n  dup3\n  dup3\n  sstore\n  swap1\n  0x00\n  mstore\n  keccak256(0x00, 0x20)\n  swap1\n  dup2\n  add\n  swap3\n  dup3\n  iszero\n  tag_15\n  jumpi\n  swap2\n  0x20\n  mul\n  dup3\n  add\ntag_16:\n  dup3\n  dup2\n  gt\n  iszero\n  tag_17\n  jumpi\n  dup3\n  mload\n  dup3\n  swap1\n  dup2\n  tag_18\n  swap2\n  swap1\n  tag_19\n  jump\t// in\ntag_18:\n  pop\n  swap2\n  0x20\n  add\n  swap2\n  swap1\n  0x01\n  add\n  swap1\n  jump(tag_16)\ntag_17:\ntag_15:\n  pop\n  swap1\n  pop\n  tag_20\n  swap2\n  swap1\n  tag_21\n  jump\t// in\ntag_20:\n  pop\n  swap1\n  jump\t// out\ntag_13:\n  dup3\n  dup1\n  sload\n  dup3\n  dup3\n  sstore\n  swap1\n  0x00\n  mstore\n  keccak256(0x00, 0x20)\n  swap1\n  dup2\n  add\n  swap3\n  dup3\n  iszero\n  tag_22\n  jumpi\n  swap2\n  0x20\n  mul\n  dup3\n  add\ntag_23:\n  dup3\n  dup2\n  gt\n  iszero\n  tag_24\n  jumpi\n  dup3\n  mload\n  dup3\n  sstore\n  swap2\n  0x20\n  add\n  swap2\n  swap1\n  0x01\n  add\n  swap1\n  jump(tag_23)\ntag_24:\ntag_22:\n  pop\n  swap1\n  pop\n  tag_25\n  swap2\n  swap1\n  tag_26\n  jump\t// in\ntag_25:\n  pop\n  swap1\n  jump\t// out\ntag_21:\ntag_27:\n  dup1\n  dup3\n  gt\n  iszero\n  tag_28\n  jumpi\n  0x00\n  dup2\n  dup2\n  tag_29\n  swap2\n  swap1\n  tag_30\n  jump\t// in\ntag_29:\n  pop\n  0x01\n  add\n  jump(tag_27)\ntag_28:\n  pop\n  swap1\n  jump\t// out\ntag_26:\ntag_31:\n  dup1\n  dup3\n  gt\n  iszero\n  tag_32\n  jumpi\n  0x00\n  dup2\n  0x00\n  swap1\n  sstore\n  pop\n  0x01\n  add\n  jump(tag_31)\ntag_32:\n  pop\n  swap1\n  jump\t// out\ntag_30:\n  pop\n  dup1\n  sload\n  tag_33\n  swap1\n  tag_34\n  jump\t// in\ntag_33:\n  0x00\n  dup3\n  sstore\n  dup1\n  0x1f\n  lt\n  tag_36\n  jumpi\n  pop\n  jump(tag_35)\ntag_36:\n  0x1f\n  add\n  0x20\n  swap1\n  div\n  swap1\n  0x00\n  mstore\n  keccak256(0x00, 0x20)\n  swap1\n  dup2\n  add\n  swap1\n  tag_37\n  swap2\n  swap1\n  tag_26\n  jump\t// in\ntag_37:\ntag_35:\n  pop\n  jump\t// out\n    /* \"#utility.yul\":7:82   */\ntag_38:\n    /* \"#utility.yul\":40:46   */\n  0x00\n    /* \"#utility.yul\":73:75   */\n  0x40\n    /* \"#utility.yul\":67:76   */\n  mload\n    /* \"#utility.yul\":57:76   */\n  swap1\n  pop\n    /* \"#utility.yul\":7:82   */\n  swap1\n  jump\t// out\n    /* \"#utility.yul\":88:205   */\ntag_39:\n    /* \"#utility.yul\":197:198   */\n  0x00\n    /* \"#utility.yul\":194:195   */\n  0x00\n    /* \"#utility.yul\":187:199   */\n  revert\n    /* \"#utility.yul\":211:328   */\ntag_40:\n    /* \"#utility.yul\":320:321   */\n  0x00\n    /* \"#utility.yul\":317:318   */\n  0x00\n    /* \"#utility.yul\":310:322   */\n  revert\n    /* \"#utility.yul\":334:451   */\ntag_41:\n    /* \"#utility.yul\":443:444   */\n  0x00\n    /* \"#utility.yul\":440:441   */\n  0x00\n    /* \"#utility.yul\":433:445   */\n  revert\n    /* \"#utility.yul\":457:559   */\ntag_42:\n    /* \"#utility.yul\":498:504   */\n  0x00\n    /* \"#utility.yul\":549:551   */\n  0x1f\n    /* \"#utility.yul\":545:552   */\n  not\n    /* \"#utility.yul\":540:542   */\n  0x1f\n    /* \"#utility.yul\":533:538   */\n  dup4\n    /* \"#utility.yul\":529:543   */\n  add\n    /* \"#utility.yul\":525:553   */\n  and\n    /* \"#utility.yul\":515:553   */\n  swap1\n  pop\n    /* \"#utility.yul\":457:559   */\n  swap2\n  swap1\n  pop\n  jump\t// out\n    /* \"#utility.yul\":565:745   */\ntag_10:\n    /* \"#utility.yul\":613:690   */\n  0x4e487b7100000000000000000000000000000000000000000000000000000000\n    /* \"#utility.yul\":610:611   */\n  0x00\n    /* \"#utility.yul\":603:691   */\n  mstore\n    /* \"#utility.yul\":710:714   */\n  0x41\n    /* \"#utility.yul\":707:708   */\n  0x04\n    /* \"#utility.yul\":700:715   */\n  mstore\n    /* \"#utility.yul\":734:738   */\n  0x24\n    /* \"#utility.yul\":731:732   */\n  0x00\n    /* \"#utility.yul\":724:739   */\n  revert\n    /* \"#utility.yul\":751:1032   */\ntag_43:\n    /* \"#utility.yul\":834:861   */\n  tag_80\n    /* \"#utility.yul\":856:860   */\n  dup3\n    /* \"#utility.yul\":834:861   */\n  tag_42\n  jump\t// in\ntag_80:\n    /* \"#utility.yul\":826:832   */\n  dup2\n    /* \"#utility.yul\":822:862   */\n  add\n    /* \"#utility.yul\":964:970   */\n  dup2\n    /* \"#utility.yul\":952:962   */\n  dup2\n    /* \"#utility.yul\":949:971   */\n  lt\n    /* \"#utility.yul\":928:946   */\n  0xffffffffffffffff\n    /* \"#utility.yul\":916:926   */\n  dup3\n    /* \"#utility.yul\":913:947   */\n  gt\n    /* \"#utility.yul\":910:972   */\n  or\n    /* \"#utility.yul\":907:995   */\n  iszero\n  tag_81\n  jumpi\n    /* \"#utility.yul\":975:993   */\n  tag_82\n  tag_10\n  jump\t// in\ntag_82:\n    /* \"#utility.yul\":907:995   */\ntag_81:\n    /* \"#utility.yul\":1015:1025   */\n  dup1\n    /* \"#utility.yul\":1011:1013   */\n  0x40\n    /* \"#utility.yul\":1004:1026   */\n  mstore\n    /* \"#utility.yul\":794:1032   */\n  pop\n    /* \"#utility.yul\":751:1032   */\n  pop\n  pop\n  jump\t// out\n    /* \"#utility.yul\":1038:1167   */\ntag_44:\n    /* \"#utility.yul\":1072:1078   */\n  0x00\n    /* \"#utility.yul\":1099:1119   */\n  tag_84\n  tag_38\n  jump\t// in\ntag_84:\n    /* \"#utility.yul\":1089:1119   */\n  swap1\n  pop\n    /* \"#utility.yul\":1128:1161   */\n  tag_85\n    /* \"#utility.yul\":1156:1160   */\n  dup3\n    /* \"#utility.yul\":1148:1154   */\n  dup3\n    /* \"#utility.yul\":1128:1161   */\n  tag_43\n  jump\t// in\ntag_85:\n    /* \"#utility.yul\":1038:1167   */\n  swap2\n  swap1\n  pop\n  jump\t// out\n    /* \"#utility.yul\":1173:1494   */\ntag_45:\n    /* \"#utility.yul\":1260:1264   */\n  0x00\n    /* \"#utility.yul\":1350:1368   */\n  0xffffffffffffffff\n    /* \"#utility.yul\":1342:1348   */\n  dup3\n    /* \"#utility.yul\":1339:1369   */\n  gt\n    /* \"#utility.yul\":1336:1392   */\n  iszero\n  tag_87\n  jumpi\n    /* \"#utility.yul\":1372:1390   */\n  tag_88\n  tag_10\n  jump\t// in\ntag_88:\n    /* \"#utility.yul\":1336:1392   */\ntag_87:\n    /* \"#utility.yul\":1422:1426   */\n  0x20\n    /* \"#utility.yul\":1414:1420   */\n  dup3\n    /* \"#utility.yul\":1410:1427   */\n  mul\n    /* \"#utility.yul\":1402:1427   */\n  swap1\n  pop\n    /* \"#utility.yul\":1482:1486   */\n  0x20\n    /* \"#utility.yul\":1476:1480   */\n  dup2\n    /* \"#utility.yul\":1472:1487   */\n  add\n    /* \"#utility.yul\":1464:1487   */\n  swap1\n  pop\n    /* \"#utility.yul\":1173:1494   */\n  swap2\n  swap1\n  pop\n  jump\t// out\n    /* \"#utility.yul\":1500:1617   */\ntag_46:\n    /* \"#utility.yul\":1609:1610   */\n  0x00\n    /* \"#utility.yul\":1606:1607   */\n  0x00\n    /* \"#utility.yul\":1599:1611   */\n  revert\n    /* \"#utility.yul\":1623:1740   */\ntag_47:\n    /* \"#utility.yul\":1732:1733   */\n  0x00\n    /* \"#utility.yul\":1729:1730   */\n  0x00\n    /* \"#utility.yul\":1722:1734   */\n  revert\n    /* \"#utility.yul\":1746:2054   */\ntag_48:\n    /* \"#utility.yul\":1808:1812   */\n  0x00\n    /* \"#utility.yul\":1898:1916   */\n  0xffffffffffffffff\n    /* \"#utility.yul\":1890:1896   */\n  dup3\n    /* \"#utility.yul\":1887:1917   */\n  gt\n    /* \"#utility.yul\":1884:1940   */\n  iszero\n  tag_92\n  jumpi\n    /* \"#utility.yul\":1920:1938   */\n  tag_93\n  tag_10\n  jump\t// in\ntag_93:\n    /* \"#utility.yul\":1884:1940   */\ntag_92:\n    /* \"#utility.yul\":1958:1987   */\n  tag_94\n    /* \"#utility.yul\":1980:1986   */\n  dup3\n    /* \"#utility.yul\":1958:1987   */\n  tag_42\n  jump\t// in\ntag_94:\n    /* \"#utility.yul\":1950:1987   */\n  swap1\n  pop\n    /* \"#utility.yul\":2042:2046   */\n  0x20\n    /* \"#utility.yul\":2036:2040   */\n  dup2\n    /* \"#utility.yul\":2032:2047   */\n  add\n    /* \"#utility.yul\":2024:2047   */\n  swap1\n  pop\n    /* \"#utility.yul\":1746:2054   */\n  swap2\n  swap1\n  pop\n  jump\t// out\n    /* \"#utility.yul\":2060:2199   */\ntag_49:\n    /* \"#utility.yul\":2149:2155   */\n  dup3\n    /* \"#utility.yul\":2144:2147   */\n  dup2\n    /* \"#utility.yul\":2139:2142   */\n  dup4\n    /* \"#utility.yul\":2133:2156   */\n  mcopy\n    /* \"#utility.yul\":2190:2191   */\n  0x00\n    /* \"#utility.yul\":2181:2187   */\n  dup4\n    /* \"#utility.yul\":2176:2179   */\n  dup4\n    /* \"#utility.yul\":2172:2188   */\n  add\n    /* \"#utility.yul\":2165:2192   */\n  mstore\n    /* \"#utility.yul\":2060:2199   */\n  pop\n  pop\n  pop\n  jump\t// out\n    /* \"#utility.yul\":2205:2639   */\ntag_50:\n    /* \"#utility.yul\":2294:2299   */\n  0x00\n    /* \"#utility.yul\":2319:2385   */\n  tag_97\n    /* \"#utility.yul\":2335:2384   */\n  tag_98\n    /* \"#utility.yul\":2377:2383   */\n  dup5\n    /* \"#utility.yul\":2335:2384   */\n  tag_48\n  jump\t// in\ntag_98:\n    /* \"#utility.yul\":2319:2385   */\n  tag_44\n  jump\t// in\ntag_97:\n    /* \"#utility.yul\":2310:2385   */\n  swap1\n  pop\n    /* \"#utility.yul\":2408:2414   */\n  dup3\n    /* \"#utility.yul\":2401:2406   */\n  dup2\n    /* \"#utility.yul\":2394:2415   */\n  mstore\n    /* \"#utility.yul\":2446:2450   */\n  0x20\n    /* \"#utility.yul\":2439:2444   */\n  dup2\n    /* \"#utility.yul\":2435:2451   */\n  add\n    /* \"#utility.yul\":2484:2487   */\n  dup5\n    /* \"#utility.yul\":2475:2481   */\n  dup5\n    /* \"#utility.yul\":2470:2473   */\n  dup5\n    /* \"#utility.yul\":2466:2482   */\n  add\n    /* \"#utility.yul\":2463:2488   */\n  gt\n    /* \"#utility.yul\":2460:2572   */\n  iszero\n  tag_99\n  jumpi\n    /* \"#utility.yul\":2491:2570   */\n  tag_100\n  tag_47\n  jump\t// in\ntag_100:\n    /* \"#utility.yul\":2460:2572   */\ntag_99:\n    /* \"#utility.yul\":2581:2633   */\n  tag_101\n    /* \"#utility.yul\":2626:2632   */\n  dup5\n    /* \"#utility.yul\":2621:2624   */\n  dup3\n    /* \"#utility.yul\":2616:2619   */\n  dup6\n    /* \"#utility.yul\":2581:2633   */\n  tag_49\n  jump\t// in\ntag_101:\n    /* \"#utility.yul\":2300:2639   */\n  pop\n    /* \"#utility.yul\":2205:2639   */\n  swap4\n  swap3\n  pop\n  pop\n  pop\n  jump\t// out\n    /* \"#utility.yul\":2659:3014   */\ntag_51:\n    /* \"#utility.yul\":2726:2731   */\n  0x00\n    /* \"#utility.yul\":2775:2778   */\n  dup3\n    /* \"#utility.yul\":2768:2772   */\n  0x1f\n    /* \"#utility.yul\":2760:2766   */\n  dup4\n    /* \"#utility.yul\":2756:2773   */\n  add\n    /* \"#utility.yul\":2752:2779   */\n  slt\n    /* \"#utility.yul\":2742:2864   */\n  tag_103\n  jumpi\n    /* \"#utility.yul\":2783:2862   */\n  tag_104\n  tag_41\n  jump\t// in\ntag_104:\n    /* \"#utility.yul\":2742:2864   */\ntag_103:\n    /* \"#utility.yul\":2893:2899   */\n  dup2\n    /* \"#utility.yul\":2887:2900   */\n  mload\n    /* \"#utility.yul\":2918:3008   */\n  tag_105\n    /* \"#utility.yul\":3004:3007   */\n  dup5\n    /* \"#utility.yul\":2996:3002   */\n  dup3\n    /* \"#utility.yul\":2989:2993   */\n  0x20\n    /* \"#utility.yul\":2981:2987   */\n  dup7\n    /* \"#utility.yul\":2977:2994   */\n  add\n    /* \"#utility.yul\":2918:3008   */\n  tag_50\n  jump\t// in\ntag_105:\n    /* \"#utility.yul\":2909:3008   */\n  swap2\n  pop\n    /* \"#utility.yul\":2732:3014   */\n  pop\n    /* \"#utility.yul\":2659:3014   */\n  swap3\n  swap2\n  pop\n  pop\n  jump\t// out\n    /* \"#utility.yul\":3036:3996   */\ntag_52:\n    /* \"#utility.yul\":3153:3158   */\n  0x00\n    /* \"#utility.yul\":3178:3269   */\n  tag_107\n    /* \"#utility.yul\":3194:3268   */\n  tag_108\n    /* \"#utility.yul\":3261:3267   */\n  dup5\n    /* \"#utility.yul\":3194:3268   */\n  tag_45\n  jump\t// in\ntag_108:\n    /* \"#utility.yul\":3178:3269   */\n  tag_44\n  jump\t// in\ntag_107:\n    /* \"#utility.yul\":3169:3269   */\n  swap1\n  pop\n    /* \"#utility.yul\":3289:3294   */\n  dup1\n    /* \"#utility.yul\":3318:3324   */\n  dup4\n    /* \"#utility.yul\":3311:3316   */\n  dup3\n    /* \"#utility.yul\":3304:3325   */\n  mstore\n    /* \"#utility.yul\":3352:3356   */\n  0x20\n    /* \"#utility.yul\":3345:3350   */\n  dup3\n    /* \"#utility.yul\":3341:3357   */\n  add\n    /* \"#utility.yul\":3334:3357   */\n  swap1\n  pop\n    /* \"#utility.yul\":3405:3409   */\n  0x20\n    /* \"#utility.yul\":3397:3403   */\n  dup5\n    /* \"#utility.yul\":3393:3410   */\n  mul\n    /* \"#utility.yul\":3385:3391   */\n  dup4\n    /* \"#utility.yul\":3381:3411   */\n  add\n    /* \"#utility.yul\":3434:3437   */\n  dup6\n    /* \"#utility.yul\":3426:3432   */\n  dup2\n    /* \"#utility.yul\":3423:3438   */\n  gt\n    /* \"#utility.yul\":3420:3542   */\n  iszero\n  tag_109\n  jumpi\n    /* \"#utility.yul\":3453:3532   */\n  tag_110\n  tag_46\n  jump\t// in\ntag_110:\n    /* \"#utility.yul\":3420:3542   */\ntag_109:\n    /* \"#utility.yul\":3568:3574   */\n  dup4\n    /* \"#utility.yul\":3551:3990   */\ntag_111:\n    /* \"#utility.yul\":3585:3591   */\n  dup2\n    /* \"#utility.yul\":3580:3583   */\n  dup2\n    /* \"#utility.yul\":3577:3592   */\n  lt\n    /* \"#utility.yul\":3551:3990   */\n  iszero\n  tag_113\n  jumpi\n    /* \"#utility.yul\":3667:3670   */\n  dup1\n    /* \"#utility.yul\":3661:3671   */\n  mload\n    /* \"#utility.yul\":3703:3721   */\n  0xffffffffffffffff\n    /* \"#utility.yul\":3690:3701   */\n  dup2\n    /* \"#utility.yul\":3687:3722   */\n  gt\n    /* \"#utility.yul\":3684:3806   */\n  iszero\n  tag_114\n  jumpi\n    /* \"#utility.yul\":3725:3804   */\n  tag_115\n  tag_41\n  jump\t// in\ntag_115:\n    /* \"#utility.yul\":3684:3806   */\ntag_114:\n    /* \"#utility.yul\":3849:3860   */\n  dup1\n    /* \"#utility.yul\":3841:3847   */\n  dup7\n    /* \"#utility.yul\":3837:3861   */\n  add\n    /* \"#utility.yul\":3887:3945   */\n  tag_116\n    /* \"#utility.yul\":3941:3944   */\n  dup10\n    /* \"#utility.yul\":3929:3939   */\n  dup3\n    /* \"#utility.yul\":3887:3945   */\n  tag_51\n  jump\t// in\ntag_116:\n    /* \"#utility.yul\":3882:3885   */\n  dup6\n    /* \"#utility.yul\":3875:3946   */\n  mstore\n    /* \"#utility.yul\":3975:3979   */\n  0x20\n    /* \"#utility.yul\":3970:3973   */\n  dup6\n    /* \"#utility.yul\":3966:3980   */\n  add\n    /* \"#utility.yul\":3959:3980   */\n  swap5\n  pop\n    /* \"#utility.yul\":3627:3990   */\n  pop\n  pop\n    /* \"#utility.yul\":3611:3615   */\n  0x20\n    /* \"#utility.yul\":3606:3609   */\n  dup2\n    /* \"#utility.yul\":3602:3616   */\n  add\n    /* \"#utility.yul\":3595:3616   */\n  swap1\n  pop\n    /* \"#utility.yul\":3551:3990   */\n  jump(tag_111)\ntag_113:\n    /* \"#utility.yul\":3555:3576   */\n  pop\n    /* \"#utility.yul\":3159:3996   */\n  pop\n  pop\n    /* \"#utility.yul\":3036:3996   */\n  swap4\n  swap3\n  pop\n  pop\n  pop\n  jump\t// out\n    /* \"#utility.yul\":4018:4423   */\ntag_53:\n    /* \"#utility.yul\":4110:4115   */\n  0x00\n    /* \"#utility.yul\":4159:4162   */\n  dup3\n    /* \"#utility.yul\":4152:4156   */\n  0x1f\n    /* \"#utility.yul\":4144:4150   */\n  dup4\n    /* \"#utility.yul\":4140:4157   */\n  add\n    /* \"#utility.yul\":4136:4163   */\n  slt\n    /* \"#utility.yul\":4126:4248   */\n  tag_118\n  jumpi\n    /* \"#utility.yul\":4167:4246   */\n  tag_119\n  tag_41\n  jump\t// in\ntag_119:\n    /* \"#utility.yul\":4126:4248   */\ntag_118:\n    /* \"#utility.yul\":4277:4283   */\n  dup2\n    /* \"#utility.yul\":4271:4284   */\n  mload\n    /* \"#utility.yul\":4302:4417   */\n  tag_120\n    /* \"#utility.yul\":4413:4416   */\n  dup5\n    /* \"#utility.yul\":4405:4411   */\n  dup3\n    /* \"#utility.yul\":4398:4402   */\n  0x20\n    /* \"#utility.yul\":4390:4396   */\n  dup7\n    /* \"#utility.yul\":4386:4403   */\n  add\n    /* \"#utility.yul\":4302:4417   */\n  tag_52\n  jump\t// in\ntag_120:\n    /* \"#utility.yul\":4293:4417   */\n  swap2\n  pop\n    /* \"#utility.yul\":4116:4423   */\n  pop\n    /* \"#utility.yul\":4018:4423   */\n  swap3\n  swap2\n  pop\n  pop\n  jump\t// out\n    /* \"#utility.yul\":4429:5003   */\ntag_3:\n    /* \"#utility.yul\":4534:4540   */\n  0x00\n    /* \"#utility.yul\":4583:4585   */\n  0x20\n    /* \"#utility.yul\":4571:4580   */\n  dup3\n    /* \"#utility.yul\":4562:4569   */\n  dup5\n    /* \"#utility.yul\":4558:4581   */\n  sub\n    /* \"#utility.yul\":4554:4586   */\n  slt\n    /* \"#utility.yul\":4551:4670   */\n  iszero\n  tag_122\n  jumpi\n    /* \"#utility.yul\":4589:4668   */\n  tag_123\n  tag_39\n  jump\t// in\ntag_123:\n    /* \"#utility.yul\":4551:4670   */\ntag_122:\n    /* \"#utility.yul\":4730:4731   */\n  0x00\n    /* \"#utility.yul\":4719:4728   */\n  dup3\n    /* \"#utility.yul\":4715:4732   */\n  add\n    /* \"#utility.yul\":4709:4733   */\n  mload\n    /* \"#utility.yul\":4760:4778   */\n  0xffffffffffffffff\n    /* \"#utility.yul\":4752:4758   */\n  dup2\n    /* \"#utility.yul\":4749:4779   */\n  gt\n    /* \"#utility.yul\":4746:4863   */\n  iszero\n  tag_124\n  jumpi\n    /* \"#utility.yul\":4782:4861   */\n  tag_125\n  tag_40\n  jump\t// in\ntag_125:\n    /* \"#utility.yul\":4746:4863   */\ntag_124:\n    /* \"#utility.yul\":4887:4986   */\n  tag_126\n    /* \"#utility.yul\":4978:4985   */\n  dup5\n    /* \"#utility.yul\":4969:4975   */\n  dup3\n    /* \"#utility.yul\":4958:4967   */\n  dup6\n    /* \"#utility.yul\":4954:4976   */\n  add\n    /* \"#utility.yul\":4887:4986   */\n  tag_53\n  jump\t// in\ntag_126:\n    /* \"#utility.yul\":4877:4986   */\n  swap2\n  pop\n    /* \"#utility.yul\":4680:4996   */\n  pop\n    /* \"#utility.yul\":4429:5003   */\n  swap3\n  swap2\n  pop\n  pop\n  jump\t// out\n    /* \"#utility.yul\":5009:5108   */\ntag_54:\n    /* \"#utility.yul\":5061:5067   */\n  0x00\n    /* \"#utility.yul\":5095:5100   */\n  dup2\n    /* \"#utility.yul\":5089:5101   */\n  mload\n    /* \"#utility.yul\":5079:5101   */\n  swap1\n  pop\n    /* \"#utility.yul\":5009:5108   */\n  swap2\n  swap1\n  pop\n  jump\t// out\n    /* \"#utility.yul\":5114:5294   */\ntag_55:\n    /* \"#utility.yul\":5162:5239   */\n  0x4e487b7100000000000000000000000000000000000000000000000000000000\n    /* \"#utility.yul\":5159:5160   */\n  0x00\n    /* \"#utility.yul\":5152:5240   */\n  mstore\n    /* \"#utility.yul\":5259:5263   */\n  0x22\n    /* \"#utility.yul\":5256:5257   */\n  0x04\n    /* \"#utility.yul\":5249:5264   */\n  mstore\n    /* \"#utility.yul\":5283:5287   */\n  0x24\n    /* \"#utility.yul\":5280:5281   */\n  0x00\n    /* \"#utility.yul\":5273:5288   */\n  revert\n    /* \"#utility.yul\":5300:5620   */\ntag_34:\n    /* \"#utility.yul\":5344:5350   */\n  0x00\n    /* \"#utility.yul\":5381:5382   */\n  0x02\n    /* \"#utility.yul\":5375:5379   */\n  dup3\n    /* \"#utility.yul\":5371:5383   */\n  div\n    /* \"#utility.yul\":5361:5383   */\n  swap1\n  pop\n    /* \"#utility.yul\":5428:5429   */\n  0x01\n    /* \"#utility.yul\":5422:5426   */\n  dup3\n    /* \"#utility.yul\":5418:5430   */\n  and\n    /* \"#utility.yul\":5449:5467   */\n  dup1\n    /* \"#utility.yul\":5439:5520   */\n  tag_130\n  jumpi\n    /* \"#utility.yul\":5505:5509   */\n  0x7f\n    /* \"#utility.yul\":5497:5503   */\n  dup3\n    /* \"#utility.yul\":5493:5510   */\n  and\n    /* \"#utility.yul\":5483:5510   */\n  swap2\n  pop\n    /* \"#utility.yul\":5439:5520   */\ntag_130:\n    /* \"#utility.yul\":5567:5569   */\n  0x20\n    /* \"#utility.yul\":5559:5565   */\n  dup3\n    /* \"#utility.yul\":5556:5570   */\n  lt\n    /* \"#utility.yul\":5536:5554   */\n  dup2\n    /* \"#utility.yul\":5533:5571   */\n  sub\n    /* \"#utility.yul\":5530:5614   */\n  tag_131\n  jumpi\n    /* \"#utility.yul\":5586:5604   */\n  tag_132\n  tag_55\n  jump\t// in\ntag_132:\n    /* \"#utility.yul\":5530:5614   */\ntag_131:\n    /* \"#utility.yul\":5351:5620   */\n  pop\n    /* \"#utility.yul\":5300:5620   */\n  swap2\n  swap1\n  pop\n  jump\t// out\n    /* \"#utility.yul\":5626:5767   */\ntag_56:\n    /* \"#utility.yul\":5675:5679   */\n  0x00\n    /* \"#utility.yul\":5698:5701   */\n  dup2\n    /* \"#utility.yul\":5690:5701   */\n  swap1\n  pop\n    /* \"#utility.yul\":5721:5724   */\n  dup2\n    /* \"#utility.yul\":5718:5719   */\n  0x00\n    /* \"#utility.yul\":5711:5725   */\n  mstore\n    /* \"#utility.yul\":5755:5759   */\n  0x20\n    /* \"#utility.yul\":5752:5753   */\n  0x00\n    /* \"#utility.yul\":5742:5760   */\n  keccak256\n    /* \"#utility.yul\":5734:5760   */\n  swap1\n  pop\n    /* \"#utility.yul\":5626:5767   */\n  swap2\n  swap1\n  pop\n  jump\t// out\n    /* \"#utility.yul\":5773:5866   */\ntag_57:\n    /* \"#utility.yul\":5810:5816   */\n  0x00\n    /* \"#utility.yul\":5857:5859   */\n  0x20\n    /* \"#utility.yul\":5852:5854   */\n  0x1f\n    /* \"#utility.yul\":5845:5850   */\n  dup4\n    /* \"#utility.yul\":5841:5855   */\n  add\n    /* \"#utility.yul\":5837:5860   */\n  div\n    /* \"#utility.yul\":5827:5860   */\n  swap1\n  pop\n    /* \"#utility.yul\":5773:5866   */\n  swap2\n  swap1\n  pop\n  jump\t// out\n    /* \"#utility.yul\":5872:5979   */\ntag_58:\n    /* \"#utility.yul\":5916:5924   */\n  0x00\n    /* \"#utility.yul\":5966:5971   */\n  dup3\n    /* \"#utility.yul\":5960:5964   */\n  dup3\n    /* \"#utility.yul\":5956:5972   */\n  shl\n    /* \"#utility.yul\":5935:5972   */\n  swap1\n  pop\n    /* \"#utility.yul\":5872:5979   */\n  swap3\n  swap2\n  pop\n  pop\n  jump\t// out\n    /* \"#utility.yul\":5985:6378   */\ntag_59:\n    /* \"#utility.yul\":6054:6060   */\n  0x00\n    /* \"#utility.yul\":6104:6105   */\n  0x08\n    /* \"#utility.yul\":6092:6102   */\n  dup4\n    /* \"#utility.yul\":6088:6106   */\n  mul\n    /* \"#utility.yul\":6127:6224   */\n  tag_137\n    /* \"#utility.yul\":6157:6223   */\n  0xffffffffffffffffffffffffffffffffffffffffffffffffffffffffffffffff\n    /* \"#utility.yul\":6146:6155   */\n  dup3\n    /* \"#utility.yul\":6127:6224   */\n  tag_58\n  jump\t// in\ntag_137:\n    /* \"#utility.yul\":6245:6284   */\n  tag_138\n    /* \"#utility.yul\":6275:6283   */\n  dup7\n    /* \"#utility.yul\":6264:6273   */\n  dup4\n    /* \"#utility.yul\":6245:6284   */\n  tag_58\n  jump\t// in\ntag_138:\n    /* \"#utility.yul\":6233:6284   */\n  swap6\n  pop\n    /* \"#utility.yul\":6317:6321   */\n  dup1\n    /* \"#utility.yul\":6313:6322   */\n  not\n    /* \"#utility.yul\":6306:6311   */\n  dup5\n    /* \"#utility.yul\":6302:6323   */\n  and\n    /* \"#utility.yul\":6293:6323   */\n  swap4\n  pop\n    /* \"#utility.yul\":6366:6370   */\n  dup1\n    /* \"#utility.yul\":6356:6364   */\n  dup7\n    /* \"#utility.yul\":6352:6371   */\n  and\n    /* \"#utility.yul\":6345:6350   */\n  dup5\n    /* \"#utility.yul\":6342:6372   */\n  or\n    /* \"#utility.yul\":6332:6372   */\n  swap3\n  pop\n    /* \"#utility.yul\":6061:6378   */\n  pop\n  pop\n    /* \"#utility.yul\":5985:6378   */\n  swap4\n  swap3\n  pop\n  pop\n  pop\n  jump\t// out\n    /* \"#utility.yul\":6384:6461   */\ntag_60:\n    /* \"#utility.yul\":6421:6428   */\n  0x00\n    /* \"#utility.yul\":6450:6455   */\n  dup2\n    /* \"#utility.yul\":6439:6455   */\n  swap1\n  pop\n    /* \"#utility.yul\":6384:6461   */\n  swap2\n  swap1\n  pop\n  jump\t// out\n    /* \"#utility.yul\":6467:6527   */\ntag_61:\n    /* \"#utility.yul\":6495:6498   */\n  0x00\n    /* \"#utility.yul\":6516:6521   */\n  dup2\n    /* \"#utility.yul\":6509:6521   */\n  swap1\n  pop\n    /* \"#utility.yul\":6467:6527   */\n  swap2\n  swap1\n  pop\n  jump\t// out\n    /* \"#utility.yul\":6533:6675   */\ntag_62:\n    /* \"#utility.yul\":6583:6592   */\n  0x00\n    /* \"#utility.yul\":6616:6669   */\n  tag_142\n    /* \"#utility.yul\":6634:6668   */\n  tag_143\n    /* \"#utility.yul\":6643:6667   */\n  tag_144\n    /* \"#utility.yul\":6661:6666   */\n  dup5\n    /* \"#utility.yul\":6643:6667   */\n  tag_60\n  jump\t// in\ntag_144:\n    /* \"#utility.yul\":6634:6668   */\n  tag_61\n  jump\t// in\ntag_143:\n    /* \"#utility.yul\":6616:6669   */\n  tag_60\n  jump\t// in\ntag_142:\n    /* \"#utility.yul\":6603:6669   */\n  swap1\n  pop\n    /* \"#utility.yul\":6533:6675   */\n  swap2\n  swap1\n  pop\n  jump\t// out\n    /* \"#utility.yul\":6681:6756   */\ntag_63:\n    /* \"#utility.yul\":6724:6727   */\n  0x00\n    /* \"#utility.yul\":6745:6750   */\n  dup2\n    /* \"#utility.yul\":6738:6750   */\n  swap1\n  pop\n    /* \"#utility.yul\":6681:6756   */\n  swap2\n  swap1\n  pop\n  jump\t// out\n    /* \"#utility.yul\":6762:7031   */\ntag_64:\n    /* \"#utility.yul\":6872:6911   */\n  tag_147\n    /* \"#utility.yul\":6903:6910   */\n  dup4\n    /* \"#utility.yul\":6872:6911   */\n  tag_62\n  jump\t// in\ntag_147:\n    /* \"#utility.yul\":6933:7024   */\n  tag_148\n    /* \"#utility.yul\":6982:7023   */\n  tag_149\n    /* \"#utility.yul\":7006:7022   */\n  dup3\n    /* \"#utility.yul\":6982:7023   */\n  tag_63\n  jump\t// in\ntag_149:\n    /* \"#utility.yul\":6974:6980   */\n  dup5\n    /* \"#utility.yul\":6967:6971   */\n  dup5\n    /* \"#utility.yul\":6961:6972   */\n  sload\n    /* \"#utility.yul\":6933:7024   */\n  tag_59\n  jump\t// in\ntag_148:\n    /* \"#utility.yul\":6927:6931   */\n  dup3\n    /* \"#utility.yul\":6920:7025   */\n  sstore\n    /* \"#utility.yul\":6838:7031   */\n  pop\n    /* \"#utility.yul\":6762:7031   */\n  pop\n  pop\n  pop\n  jump\t// out\n    /* \"#utility.yul\":7037:7110   */\ntag_65:\n    /* \"#utility.yul\":7082:7085   */\n  0x00\n    /* \"#utility.yul\":7103:7104   */\n  0x00\n    /* \"#utility.yul\":7096:7104   */\n  swap1\n  pop\n    /* \"#utility.yul\":7037:7110   */\n  swap1\n  jump\t// out\n    /* \"#utility.yul\":7116:7305   */\ntag_66:\n    /* \"#utility.yul\":7193:7225   */\n  tag_152\n  tag_65\n  jump\t// in\ntag_152:\n    /* \"#utility.yul\":7234:7299   */\n  tag_153\n    /* \"#utility.yul\":7292:7298   */\n  dup2\n    /* \"#utility.yul\":7284:7290   */\n  dup5\n    /* \"#utility.yul\":7278:7282   */\n  dup5\n    /* \"#utility.yul\":7234:7299   */\n  tag_64\n  jump\t// in\ntag_153:\n    /* \"#utility.yul\":7169:7305   */\n  pop\n    /* \"#utility.yul\":7116:7305   */\n  pop\n  pop\n  jump\t// out\n    /* \"#utility.yul\":7311:7497   */\ntag_67:\n    /* \"#utility.yul\":7371:7491   */\ntag_155:\n    /* \"#utility.yul\":7388:7391   */\n  dup2\n    /* \"#utility.yul\":7381:7386   */\n  dup2\n    /* \"#utility.yul\":7378:7392   */\n  lt\n    /* \"#utility.yul\":7371:7491   */\n  iszero\n  tag_157\n  jumpi\n    /* \"#utility.yul\":7442:7481   */\n  tag_158\n    /* \"#utility.yul\":7479:7480   */\n  0x00\n    /* \"#utility.yul\":7472:7477   */\n  dup3\n    /* \"#utility.yul\":7442:7481   */\n  tag_66\n  jump\t// in\ntag_158:\n    /* \"#utility.yul\":7415:7416   */\n  0x01\n    /* \"#utility.yul\":7408:7413   */\n  dup2\n    /* \"#utility.yul\":7404:7417   */\n  add\n    /* \"#utility.yul\":7395:7417   */\n  swap1\n  pop\n    /* \"#utility.yul\":7371:7491   */\n  jump(tag_155)\ntag_157:\n    /* \"#utility.yul\":7311:7497   */\n  pop\n  pop\n  jump\t// out\n    /* \"#utility.yul\":7503:8046   */\ntag_68:\n    /* \"#utility.yul\":7604:7606   */\n  0x1f\n    /* \"#utility.yul\":7599:7602   */\n  dup3\n    /* \"#utility.yul\":7596:7607   */\n  gt\n    /* \"#utility.yul\":7593:8039   */\n  iszero\n  tag_160\n  jumpi\n    /* \"#utility.yul\":7638:7676   */\n  tag_161\n    /* \"#utility.yul\":7670:7675   */\n  dup2\n    /* \"#utility.yul\":7638:7676   */\n  tag_56\n  jump\t// in\ntag_161:\n    /* \"#utility.yul\":7722:7751   */\n  tag_162\n    /* \"#utility.yul\":7740:7750   */\n  dup5\n    /* \"#utility.yul\":7722:7751   */\n  tag_57\n  jump\t// in\ntag_162:\n    /* \"#utility.yul\":7712:7720   */\n  dup2\n    /* \"#utility.yul\":7708:7752   */\n  add\n    /* \"#utility.yul\":7905:7907   */\n  0x20\n    /* \"#utility.yul\":7893:7903   */\n  dup6\n    /* \"#utility.yul\":7890:7908   */\n  lt\n    /* \"#utility.yul\":7887:7936   */\n  iszero\n  tag_163\n  jumpi\n    /* \"#utility.yul\":7926:7934   */\n  dup2\n    /* \"#utility.yul\":7911:7934   */\n  swap1\n  pop\n    /* \"#utility.yul\":7887:7936   */\ntag_163:\n    /* \"#utility.yul\":7949:8029   */\n  tag_164\n    /* \"#utility.yul\":8005:8027   */\n  tag_165\n    /* \"#utility.yul\":8023:8026   */\n  dup6\n    /* \"#utility.yul\":8005:8027   */\n  tag_57\n  jump\t// in\ntag_165:\n    /* \"#utility.yul\":7995:8003   */\n  dup4\n    /* \"#utility.yul\":7991:8028   */\n  add\n    /* \"#utility.yul\":7978:7989   */\n  dup3\n    /* \"#utility.yul\":7949:8029   */\n  tag_67\n  jump\t// in\ntag_164:\n    /* \"#utility.yul\":7608:8039   */\n  pop\n  pop\n    /* \"#utility.yul\":7593:8039   */\ntag_160:\n    /* \"#utility.yul\":7503:8046   */\n  pop\n  pop\n  pop\n  jump\t// out\n    /* \"#utility.yul\":8052:8169   */\ntag_69:\n    /* \"#utility.yul\":8106:8114   */\n  0x00\n    /* \"#utility.yul\":8156:8161   */\n  dup3\n    /* \"#utility.yul\":8150:8154   */\n  dup3\n    /* \"#utility.yul\":8146:8162   */\n  shr\n    /* \"#utility.yul\":8125:8162   */\n  swap1\n  pop\n    /* \"#utility.yul\":8052:8169   */\n  swap3\n  swap2\n  pop\n  pop\n  jump\t// out\n    /* \"#utility.yul\":8175:8344   */\ntag_70:\n    /* \"#utility.yul\":8219:8225   */\n  0x00\n    /* \"#utility.yul\":8252:8303   */\n  tag_168\n    /* \"#utility.yul\":8300:8301   */\n  0x00\n    /* \"#utility.yul\":8296:8302   */\n  not\n    /* \"#utility.yul\":8288:8293   */\n  dup5\n    /* \"#utility.yul\":8285:8286   */\n  0x08\n    /* \"#utility.yul\":8281:8294   */\n  mul\n    /* \"#utility.yul\":8252:8303   */\n  tag_69\n  jump\t// in\ntag_168:\n    /* \"#utility.yul\":8248:8304   */\n  not\n    /* \"#utility.yul\":8333:8337   */\n  dup1\n    /* \"#utility.yul\":8327:8331   */\n  dup4\n    /* \"#utility.yul\":8323:8338   */\n  and\n    /* \"#utility.yul\":8313:8338   */\n  swap2\n  pop\n    /* \"#utility.yul\":8226:8344   */\n  pop\n    /* \"#utility.yul\":8175:8344   */\n  swap3\n  swap2\n  pop\n  pop\n  jump\t// out\n    /* \"#utility.yul\":8349:8644   */\ntag_71:\n    /* \"#utility.yul\":8425:8429   */\n  0x00\n    /* \"#utility.yul\":8571:8600   */\n  tag_170\n    /* \"#utility.yul\":8596:8599   */\n  dup4\n    /* \"#utility.yul\":8590:8594   */\n  dup4\n    /* \"#utility.yul\":8571:8600   */\n  tag_70\n  jump\t// in\ntag_170:\n    /* \"#utility.yul\":8563:8600   */\n  swap2\n  pop\n    /* \"#utility.yul\":8633:8636   */\n  dup3\n    /* \"#utility.yul\":8630:8631   */\n  0x02\n    /* \"#utility.yul\":8626:8637   */\n  mul\n    /* \"#utility.yul\":8620:8624   */\n  dup3\n    /* \"#utility.yul\":8617:8638   */\n  or\n    /* \"#utility.yul\":8609:8638   */\n  swap1\n  pop\n    /* \"#utility.yul\":8349:8644   */\n  swap3\n  swap2\n  pop\n  pop\n  jump\t// out\n    /* \"#utility.yul\":8649:10044   */\ntag_19:\n    /* \"#utility.yul\":8766:8803   */\n  tag_172\n    /* \"#utility.yul\":8799:8802   */\n  dup3\n    /* \"#utility.yul\":8766:8803   */\n  tag_54\n  jump\t// in\ntag_172:\n    /* \"#utility.yul\":8868:8886   */\n  0xffffffffffffffff\n    /* \"#utility.yul\":8860:8866   */\n  dup2\n    /* \"#utility.yul\":8857:8887   */\n  gt\n    /* \"#utility.yul\":8854:8910   */\n  iszero\n  tag_173\n  jumpi\n    /* \"#utility.yul\":8890:8908   */\n  tag_174\n  tag_10\n  jump\t// in\ntag_174:\n    /* \"#utility.yul\":8854:8910   */\ntag_173:\n    /* \"#utility.yul\":8934:8972   */\n  tag_175\n    /* \"#utility.yul\":8966:8970   */\n  dup3\n    /* \"#utility.yul\":8960:8971   */\n  sload\n    /* \"#utility.yul\":8934:8972   */\n  tag_34\n  jump\t// in\ntag_175:\n    /* \"#utility.yul\":9019:9086   */\n  tag_176\n    /* \"#utility.yul\":9079:9085   */\n  dup3\n    /* \"#utility.yul\":9071:9077   */\n  dup3\n    /* \"#utility.yul\":9065:9069   */\n  dup6\n    /* \"#utility.yul\":9019:9086   */\n  tag_68\n  jump\t// in\ntag_176:\n    /* \"#utility.yul\":9113:9114   */\n  0x00\n    /* \"#utility.yul\":9137:9141   */\n  0x20\n    /* \"#utility.yul\":9124:9141   */\n  swap1\n  pop\n    /* \"#utility.yul\":9169:9171   */\n  0x1f\n    /* \"#utility.yul\":9161:9167   */\n  dup4\n    /* \"#utility.yul\":9158:9172   */\n  gt\n    /* \"#utility.yul\":9186:9187   */\n  0x01\n    /* \"#utility.yul\":9181:9799   */\n  dup2\n  eq\n  tag_178\n  jumpi\n    /* \"#utility.yul\":9843:9844   */\n  0x00\n    /* \"#utility.yul\":9860:9866   */\n  dup5\n    /* \"#utility.yul\":9857:9934   */\n  iszero\n  tag_179\n  jumpi\n    /* \"#utility.yul\":9909:9918   */\n  dup3\n    /* \"#utility.yul\":9904:9907   */\n  dup8\n    /* \"#utility.yul\":9900:9919   */\n  add\n    /* \"#utility.yul\":9894:9920   */\n  mload\n    /* \"#utility.yul\":9885:9920   */\n  swap1\n  pop\n    /* \"#utility.yul\":9857:9934   */\ntag_179:\n    /* \"#utility.yul\":9960:10027   */\n  tag_180\n    /* \"#utility.yul\":10020:10026   */\n  dup6\n    /* \"#utility.yul\":10013:10018   */\n  dup3\n    /* \"#utility.yul\":9960:10027   */\n  tag_71\n  jump\t// in\ntag_180:\n    /* \"#utility.yul\":9954:9958   */\n  dup7\n    /* \"#utility.yul\":9947:10028   */\n  sstore\n    /* \"#utility.yul\":9816:10038   */\n  pop\n    /* \"#utility.yul\":9151:10038   */\n  jump(tag_177)\n    /* \"#utility.yul\":9181:9799   */\ntag_178:\n    /* \"#utility.yul\":9233:9237   */\n  0x1f\n    /* \"#utility.yul\":9229:9238   */\n  not\n    /* \"#utility.yul\":9221:9227   */\n  dup5\n    /* \"#utility.yul\":9217:9239   */\n  and\n    /* \"#utility.yul\":9267:9304   */\n  tag_181\n    /* \"#utility.yul\":9299:9303   */\n  dup7\n    /* \"#utility.yul\":9267:9304   */\n  tag_56\n  jump\t// in\ntag_181:\n    /* \"#utility.yul\":9326:9327   */\n  0x00\n    /* \"#utility.yul\":9340:9548   */\ntag_182:\n    /* \"#utility.yul\":9354:9361   */\n  dup3\n    /* \"#utility.yul\":9351:9352   */\n  dup2\n    /* \"#utility.yul\":9348:9362   */\n  lt\n    /* \"#utility.yul\":9340:9548   */\n  iszero\n  tag_184\n  jumpi\n    /* \"#utility.yul\":9433:9442   */\n  dup5\n    /* \"#utility.yul\":9428:9431   */\n  dup10\n    /* \"#utility.yul\":9424:9443   */\n  add\n    /* \"#utility.yul\":9418:9444   */\n  mload\n    /* \"#utility.yul\":9410:9416   */\n  dup3\n    /* \"#utility.yul\":9403:9445   */\n  sstore\n    /* \"#utility.yul\":9484:9485   */\n  0x01\n    /* \"#utility.yul\":9476:9482   */\n  dup3\n    /* \"#utility.yul\":9472:9486   */\n  add\n    /* \"#utility.yul\":9462:9486   */\n  swap2\n  pop\n    /* \"#utility.yul\":9531:9533   */\n  0x20\n    /* \"#utility.yul\":9520:9529   */\n  dup6\n    /* \"#utility.yul\":9516:9534   */\n  add\n    /* \"#utility.yul\":9503:9534   */\n  swap5\n  pop\n    /* \"#utility.yul\":9377:9381   */\n  0x20\n    /* \"#utility.yul\":9374:9375   */\n  dup2\n    /* \"#utility.yul\":9370:9382   */\n  add\n    /* \"#utility.yul\":9365:9382   */\n  swap1\n  pop\n    /* \"#utility.yul\":9340:9548   */\n  jump(tag_182)\ntag_184:\n    /* \"#utility.yul\":9576:9582   */\n  dup7\n    /* \"#utility.yul\":9567:9574   */\n  dup4\n    /* \"#utility.yul\":9564:9583   */\n  lt\n    /* \"#utility.yul\":9561:9740   */\n  iszero\n  tag_185\n  jumpi\n    /* \"#utility.yul\":9634:9643   */\n  dup5\n    /* \"#utility.yul\":9629:9632   */\n  dup10\n    /* \"#utility.yul\":9625:9644   */\n  add\n    /* \"#utility.yul\":9619:9645   */\n  mload\n    /* \"#utility.yul\":9677:9725   */\n  tag_186\n    /* \"#utility.yul\":9719:9723   */\n  0x1f\n    /* \"#utility.yul\":9711:9717   */\n  dup10\n    /* \"#utility.yul\":9707:9724   */\n  and\n    /* \"#utility.yul\":9696:9705   */\n  dup3\n    /* \"#utility.yul\":9677:9725   */\n  tag_70\n  jump\t// in\ntag_186:\n    /* \"#utility.yul\":9669:9675   */\n  dup4\n    /* \"#utility.yul\":9662:9726   */\n  sstore\n    /* \"#utility.yul\":9584:9740   */\n  pop\n    /* \"#utility.yul\":9561:9740   */\ntag_185:\n    /* \"#utility.yul\":9786:9787   */\n  0x01\n    /* \"#utility.yul\":9782:9783   */\n  0x02\n    /* \"#utility.yul\":9774:9780   */\n  dup9\n    /* \"#utility.yul\":9770:9784   */\n  mul\n    /* \"#utility.yul\":9766:9788   */\n  add\n    /* \"#utility.yul\":9760:9764   */\n  dup9\n    /* \"#utility.yul\":9753:9789   */\n  sstore\n    /* \"#utility.yul\":9188:9799   */\n  pop\n  pop\n  pop\n    /* \"#utility.yul\":9151:10038   */\ntag_177:\n  pop\n    /* \"#utility.yul\":8741:10044   */\n  pop\n  pop\n  pop\n    /* \"#utility.yul\":8649:10044   */\n  pop\n  pop\n  jump\t// out\n    /* \"Voter.sol\":60:1391  contract Voter {... */\ntag_14:\n  dataSize(sub_0)\n  dup1\n  dataOffset(sub_0)\n  0x00\n  codecopy\n  0x00\n  return\nstop\n\nsub_0: assembly {\n        /* \"Voter.sol\":60:1391  contract Voter {... */\n      mstore(0x40, 0x80)\n      callvalue\n      dup1\n      iszero\n      tag_1\n      jumpi\n      revert(0x00, 0x00)\n    tag_1:\n      pop\n      jumpi(tag_2, lt(calldatasize, 0x04))\n      shr(0xe0, calldataload(0x00))\n      dup1\n      0x0121b93f\n      eq\n      tag_3\n      jumpi\n      dup1\n      0x0dc96015\n      eq\n      tag_4\n      jumpi\n      dup1\n      0x409e2205\n      eq\n      tag_5\n      jumpi\n      dup1\n      0x5df81330\n      eq\n      tag_6\n      jumpi\n      dup1\n      0xcc2ee196\n      eq\n      tag_7\n      jumpi\n      dup1\n      0xfc36e15b\n      eq\n      tag_8\n      jumpi\n    tag_2:\n      revert(0x00, 0x00)\n        /* \"Voter.sol\":314:504  function vote(uint option) public {... */\n    tag_3:\n      tag_9\n      0x04\n      dup1\n      calldatasize\n      sub\n      dup2\n      add\n      swap1\n      tag_10\n      swap2\n      swap1\n      tag_11\n      jump\t// in\n    tag_10:\n      tag_12\n      jump\t// in\n    tag_9:\n      stop\n        /* \"Voter.sol\":1301:1388  function getVotes() public view returns (uint[] memory) {... */\n    tag_4:\n      tag_13\n      tag_14\n      jump\t// in\n    tag_13:\n      mload(0x40)\n      tag_15\n      swap2\n      swap1\n      tag_16\n      jump\t// in\n    tag_15:\n      mload(0x40)\n      dup1\n      swap2\n      sub\n      swap1\n      return\n        /* \"Voter.sol\":108:131  string[] public options */\n    tag_5:\n      tag_17\n      0x04\n      dup1\n      calldatasize\n      sub\n      dup2\n      add\n      swap1\n      tag_18\n      swap2\n      swap1\n      tag_11\n      jump\t// in\n    tag_18:\n      tag_19\n      jump\t// in\n    tag_17:\n      mload(0x40)\n      tag_20\n      swap2\n      swap1\n      tag_21\n      jump\t// in\n    tag_20:\n      mload(0x40)\n      dup1\n      swap2\n      sub\n      swap1\n      return\n        /* \"Voter.sol\":82:101  uint[] public votes */\n    tag_6:\n      tag_22\n      0x04\n      dup1\n      calldatasize\n      sub\n      dup2\n      add\n      swap1\n      tag_23\n      swap2\n      swap1\n      tag_11\n      jump\t// in\n    tag_23:\n      tag_24\n      jump\t// in\n    tag_22:\n      mload(0x40)\n      tag_25\n      swap2\n      swap1\n      tag_26\n      jump\t// in\n    tag_25:\n      mload(0x40)\n      dup1\n      swap2\n      sub\n      swap1\n      return\n        /* \"Voter.sol\":1200:1293  function getOptions() public view returns (string[] memory) {... */\n    tag_7:\n      tag_27\n      tag_28\n      jump\t// in\n    tag_27:\n      mload(0x40)\n      tag_29\n      swap2\n      swap1\n      tag_30\n      jump\t// in\n    tag_29:\n      mload(0x40)\n      dup1\n      swap2\n      sub\n      swap1\n      return\n        /* \"Voter.sol\":651:1033  function vote(string memory option) public {... */\n    tag_8:\n      tag_31\n      0x04\n      dup1\n      calldatasize\n      sub\n      dup2\n      add\n      swap1\n      tag_32\n      swap2\n      swap1\n      tag_33\n      jump\t// in\n    tag_32:\n      tag_34\n      jump\t// in\n    tag_31:\n      stop\n        /* \"Voter.sol\":314:504  function vote(uint option) public {... */\n    tag_12:\n        /* \"Voter.sol\":376:383  options */\n      0x01\n        /* \"Voter.sol\":376:390  options.length */\n      dup1\n      sload\n      swap1\n      pop\n        /* \"Voter.sol\":367:373  option */\n      dup2\n        /* \"Voter.sol\":367:390  option < options.length */\n      lt\n        /* \"Voter.sol\":359:409  require(option < options.length, \"Invalid option\") */\n      tag_36\n      jumpi\n      mload(0x40)\n      0x08c379a000000000000000000000000000000000000000000000000000000000\n      dup2\n      mstore\n      0x04\n      add\n      tag_37\n      swap1\n      tag_38\n      jump\t// in\n    tag_37:\n      mload(0x40)\n      dup1\n      swap2\n      sub\n      swap1\n      revert\n    tag_36:\n        /* \"Voter.sol\":429:437  hasVoted */\n      0x02\n        /* \"Voter.sol\":429:449  hasVoted[msg.sender] */\n      0x00\n        /* \"Voter.sol\":438:448  msg.sender */\n      caller\n        /* \"Voter.sol\":429:449  hasVoted[msg.sender] */\n      0xffffffffffffffffffffffffffffffffffffffff\n      and\n      0xffffffffffffffffffffffffffffffffffffffff\n      and\n      dup2\n      mstore\n      0x20\n      add\n      swap1\n      dup2\n      mstore\n      0x20\n      add\n      0x00\n      keccak256\n      0x00\n      swap1\n      sload\n      swap1\n      0x0100\n      exp\n      swap1\n      div\n      0xff\n      and\n        /* \"Voter.sol\":428:449  !hasVoted[msg.sender] */\n      iszero\n        /* \"Voter.sol\":420:467  require(!hasVoted[msg.sender], \"Already voted\") */\n      tag_39\n      jumpi\n      mload(0x40)\n      0x08c379a000000000000000000000000000000000000000000000000000000000\n      dup2\n      mstore\n      0x04\n      add\n      tag_40\n      swap1\n      tag_41\n      jump\t// in\n    tag_40:\n      mload(0x40)\n      dup1\n      swap2\n      sub\n      swap1\n      revert\n    tag_39:\n        /* \"Voter.sol\":478:496  recordVote(option) */\n      tag_42\n        /* \"Voter.sol\":489:495  option */\n      dup2\n        /* \"Voter.sol\":478:488  recordVote */\n      tag_43\n        /* \"Voter.sol\":478:496  recordVote(option) */\n      jump\t// in\n    tag_42:\n        /* \"Voter.sol\":314:504  function vote(uint option) public {... */\n      pop\n      jump\t// out\n        /* \"Voter.sol\":1301:1388  function getVotes() public view returns (uint[] memory) {... */\n    tag_14:\n        /* \"Voter.sol\":1342:1355  uint[] memory */\n      0x60\n        /* \"Voter.sol\":1375:1380  votes */\n      0x00\n        /* \"Voter.sol\":1368:1380  return votes */\n      dup1\n      sload\n      dup1\n      0x20\n      mul\n      0x20\n      add\n      mload(0x40)\n      swap1\n      dup2\n      add\n      0x40\n      mstore\n      dup1\n      swap3\n      swap2\n      swap1\n      dup2\n      dup2\n      mstore\n      0x20\n      add\n      dup3\n      dup1\n      sload\n      dup1\n      iszero\n      tag_45\n      jumpi\n      0x20\n      mul\n      dup3\n      add\n      swap2\n      swap1\n      0x00\n      mstore\n      keccak256(0x00, 0x20)\n      swap1\n    tag_46:\n      dup2\n      sload\n      dup2\n      mstore\n      0x20\n      add\n      swap1\n      0x01\n      add\n      swap1\n      dup1\n      dup4\n      gt\n      tag_46\n      jumpi\n    tag_45:\n      pop\n      pop\n      pop\n      pop\n      pop\n      swap1\n      pop\n        /* \"Voter.sol\":1301:1388  function getVotes() public view returns (uint[] memory) {... */\n      swap1\n      jump\t// out\n        /* \"Voter.sol\":108:131  string[] public options */\n    tag_19:\n      0x01\n      dup2\n      dup2\n      sload\n      dup2\n      lt\n      tag_47\n      jumpi\n      0x00\n      dup1\n      revert\n    tag_47:\n      swap1\n      0x00\n      mstore\n      keccak256(0x00, 0x20)\n      add\n      0x00\n      swap2\n      pop\n      swap1\n      pop\n      dup1\n      sload\n      tag_49\n      swap1\n      tag_50\n      jump\t// in\n    tag_49:\n      dup1\n      0x1f\n      add\n      0x20\n      dup1\n      swap2\n      div\n      mul\n      0x20\n      add\n      mload(0x40)\n      swap1\n      dup2\n      add\n      0x40\n      mstore\n      dup1\n      swap3\n      swap2\n      swap1\n      dup2\n      dup2\n      mstore\n      0x20\n      add\n      dup3\n      dup1\n      sload\n      tag_51\n      swap1\n      tag_50\n      jump\t// in\n    tag_51:\n      dup1\n      iszero\n      tag_52\n      jumpi\n      dup1\n      0x1f\n      lt\n      tag_53\n      jumpi\n      0x0100\n      dup1\n      dup4\n      sload\n      div\n      mul\n      dup4\n      mstore\n      swap2\n      0x20\n      add\n      swap2\n      jump(tag_52)\n    tag_53:\n      dup3\n      add\n      swap2\n      swap1\n      0x00\n      mstore\n      keccak256(0x00, 0x20)\n      swap1\n    tag_54:\n      dup2\n      sload\n      dup2\n      mstore\n      swap1\n      0x01\n      add\n      swap1\n      0x20\n      add\n      dup1\n      dup4\n      gt\n      tag_54\n      jumpi\n      dup3\n      swap1\n      sub\n      0x1f\n      and\n      dup3\n      add\n      swap2\n    tag_52:\n      pop\n      pop\n      pop\n      pop\n      pop\n      dup2\n      jump\t// out\n        /* \"Voter.sol\":82:101  uint[] public votes */\n    tag_24:\n      0x00\n      dup2\n      dup2\n      sload\n      dup2\n      lt\n      tag_55\n      jumpi\n      0x00\n      dup1\n      revert\n    tag_55:\n      swap1\n      0x00\n      mstore\n      keccak256(0x00, 0x20)\n      add\n      0x00\n      swap2\n      pop\n      swap1\n      pop\n      sload\n      dup2\n      jump\t// out\n        /* \"Voter.sol\":1200:1293  function getOptions() public view returns (string[] memory) {... */\n    tag_28:\n        /* \"Voter.sol\":1243:1258  string[] memory */\n      0x60\n        /* \"Voter.sol\":1278:1285  options */\n      0x01\n        /* \"Voter.sol\":1271:1285  return options */\n      dup1\n      sload\n      dup1\n      0x20\n      mul\n      0x20\n      add\n      mload(0x40)\n      swap1\n      dup2\n      add\n      0x40\n      mstore\n      dup1\n      swap3\n      swap2\n      swap1\n      dup2\n      dup2\n      mstore\n      0x20\n      add\n      0x00\n      swap1\n    tag_58:\n      dup3\n      dup3\n      lt\n      iszero\n      tag_59\n      jumpi\n      dup4\n      dup3\n      swap1\n      0x00\n      mstore\n      keccak256(0x00, 0x20)\n      add\n      dup1\n      sload\n      tag_61\n      swap1\n      tag_50\n      jump\t// in\n    tag_61:\n      dup1\n      0x1f\n      add\n      0x20\n      dup1\n      swap2\n      div\n      mul\n      0x20\n      add\n      mload(0x40)\n      swap1\n      dup2\n      add\n      0x40\n      mstore\n      dup1\n      swap3\n      swap2\n      swap1\n      dup2\n      dup2\n      mstore\n      0x20\n      add\n      dup3\n      dup1\n      sload\n      tag_62\n      swap1\n      tag_50\n      jump\t// in\n    tag_62:\n      dup1\n      iszero\n      tag_63\n      jumpi\n      dup1\n      0x1f\n      lt\n      tag_64\n      jumpi\n      0x0100\n      dup1\n      dup4\n      sload\n      div\n      mul\n      dup4\n      mstore\n      swap2\n      0x20\n      add\n      swap2\n      jump(tag_63)\n    tag_64:\n      dup3\n      add\n      swap2\n      swap1\n      0x00\n      mstore\n      keccak256(0x00, 0x20)\n      swap1\n    tag_65:\n      dup2\n      sload\n      dup2\n      mstore\n      swap1\n      0x01\n      add\n      swap1\n      0x20\n      add\n      dup1\n      dup4\n      gt\n      tag_65\n      jumpi\n      dup3\n      swap1\n      sub\n      0x1f\n      and\n      dup3\n      add\n      swap2\n    tag_63:\n      pop\n      pop\n      pop\n      pop\n      pop\n      dup2\n      mstore\n      0x20\n      add\n      swap1\n      0x01\n      add\n      swap1\n      jump(tag_58)\n    tag_59:\n      pop\n      pop\n      pop\n      pop\n      swap1\n      pop\n        /* \"Voter.sol\":1200:1293  function getOptions() public view returns (string[] memory) {... */\n      swap1\n      jump\t// out\n        /* \"Voter.sol\":651:1033  function vote(string memory option) public {... */\n    tag_34:\n        /* \"Voter.sol\":714:722  hasVoted */\n      0x02\n        /* \"Voter.sol\":714:734  hasVoted[msg.sender] */\n      0x00\n        /* \"Voter.sol\":723:733  msg.sender */\n      caller\n        /* \"Voter.sol\":714:734  hasVoted[msg.sender] */\n      0xffffffffffffffffffffffffffffffffffffffff\n      and\n      0xffffffffffffffffffffffffffffffffffffffff\n      and\n      dup2\n      mstore\n      0x20\n      add\n      swap1\n      dup2\n      mstore\n      0x20\n      add\n      0x00\n      keccak256\n      0x00\n      swap1\n      sload\n      swap1\n      0x0100\n      exp\n      swap1\n      div\n      0xff\n      and\n        /* \"Voter.sol\":713:734  !hasVoted[msg.sender] */\n      iszero\n        /* \"Voter.sol\":705:752  require(!hasVoted[msg.sender], \"Already voted\") */\n      tag_67\n      jumpi\n      mload(0x40)\n      0x08c379a000000000000000000000000000000000000000000000000000000000\n      dup2\n      mstore\n      0x04\n      add\n      tag_68\n      swap1\n      tag_41\n      jump\t// in\n    tag_68:\n      mload(0x40)\n      dup1\n      swap2\n      sub\n      swap1\n      revert\n    tag_67:\n        /* \"Voter.sol\":770:776  uint i */\n      0x00\n        /* \"Voter.sol\":779:780  0 */\n      0x00\n        /* \"Voter.sol\":770:780  uint i = 0 */\n      swap1\n      pop\n        /* \"Voter.sol\":765:997  for (uint i = 0; i < options.length; i++) {... */\n    tag_69:\n        /* \"Voter.sol\":786:793  options */\n      0x01\n        /* \"Voter.sol\":786:800  options.length */\n      dup1\n      sload\n      swap1\n      pop\n        /* \"Voter.sol\":782:783  i */\n      dup2\n        /* \"Voter.sol\":782:800  i < options.length */\n      lt\n        /* \"Voter.sol\":765:997  for (uint i = 0; i < options.length; i++) {... */\n      iszero\n      tag_70\n      jumpi\n        /* \"Voter.sol\":822:846  string memory currOption */\n      0x00\n        /* \"Voter.sol\":849:856  options */\n      0x01\n        /* \"Voter.sol\":857:858  i */\n      dup3\n        /* \"Voter.sol\":849:859  options[i] */\n      dup2\n      sload\n      dup2\n      lt\n      tag_72\n      jumpi\n      tag_73\n      tag_74\n      jump\t// in\n    tag_73:\n    tag_72:\n      swap1\n      0x00\n      mstore\n      keccak256(0x00, 0x20)\n      add\n        /* \"Voter.sol\":822:859  string memory currOption = options[i] */\n      dup1\n      sload\n      tag_76\n      swap1\n      tag_50\n      jump\t// in\n    tag_76:\n      dup1\n      0x1f\n      add\n      0x20\n      dup1\n      swap2\n      div\n      mul\n      0x20\n      add\n      mload(0x40)\n      swap1\n      dup2\n      add\n      0x40\n      mstore\n      dup1\n      swap3\n      swap2\n      swap1\n      dup2\n      dup2\n      mstore\n      0x20\n      add\n      dup3\n      dup1\n      sload\n      tag_77\n      swap1\n      tag_50\n      jump\t// in\n    tag_77:\n      dup1\n      iszero\n      tag_78\n      jumpi\n      dup1\n      0x1f\n      lt\n      tag_79\n      jumpi\n      0x0100\n      dup1\n      dup4\n      sload\n      div\n      mul\n      dup4\n      mstore\n      swap2\n      0x20\n      add\n      swap2\n      jump(tag_78)\n    tag_79:\n      dup3\n      add\n      swap2\n      swap1\n      0x00\n      mstore\n      keccak256(0x00, 0x20)\n      swap1\n    tag_80:\n      dup2\n      sload\n      dup2\n      mstore\n      swap1\n      0x01\n      add\n      swap1\n      0x20\n      add\n      dup1\n      dup4\n      gt\n      tag_80\n      jumpi\n      dup3\n      swap1\n      sub\n      0x1f\n      and\n      dup3\n      add\n      swap2\n    tag_78:\n      pop\n      pop\n      pop\n      pop\n      pop\n      swap1\n      pop\n        /* \"Voter.sol\":878:909  stringEqual(option, currOption) */\n      tag_81\n        /* \"Voter.sol\":890:896  option */\n      dup4\n        /* \"Voter.sol\":898:908  currOption */\n      dup3\n        /* \"Voter.sol\":878:889  stringEqual */\n      tag_82\n        /* \"Voter.sol\":878:909  stringEqual(option, currOption) */\n      jump\t// in\n    tag_81:\n        /* \"Voter.sol\":874:986  if (stringEqual(option, currOption)) {... */\n      iszero\n      tag_83\n      jumpi\n        /* \"Voter.sol\":931:944  recordVote(i) */\n      tag_84\n        /* \"Voter.sol\":942:943  i */\n      dup3\n        /* \"Voter.sol\":931:941  recordVote */\n      tag_43\n        /* \"Voter.sol\":931:944  recordVote(i) */\n      jump\t// in\n    tag_84:\n        /* \"Voter.sol\":964:971  return; */\n      pop\n      pop\n      jump(tag_66)\n        /* \"Voter.sol\":874:986  if (stringEqual(option, currOption)) {... */\n    tag_83:\n        /* \"Voter.sol\":807:997  {... */\n      pop\n        /* \"Voter.sol\":802:805  i++ */\n      dup1\n      dup1\n      0x01\n      add\n      swap2\n      pop\n      pop\n        /* \"Voter.sol\":765:997  for (uint i = 0; i < options.length; i++) {... */\n      jump(tag_69)\n    tag_70:\n        /* \"Voter.sol\":1017:1025  revert() */\n      revert(0x00, 0x00)\n        /* \"Voter.sol\":651:1033  function vote(string memory option) public {... */\n    tag_66:\n      pop\n      jump\t// out\n        /* \"Voter.sol\":512:643  function recordVote(uint option) private {... */\n    tag_43:\n        /* \"Voter.sol\":587:591  true */\n      0x01\n        /* \"Voter.sol\":564:572  hasVoted */\n      0x02\n        /* \"Voter.sol\":564:584  hasVoted[msg.sender] */\n      0x00\n        /* \"Voter.sol\":573:583  msg.sender */\n      caller\n        /* \"Voter.sol\":564:584  hasVoted[msg.sender] */\n      0xffffffffffffffffffffffffffffffffffffffff\n      and\n      0xffffffffffffffffffffffffffffffffffffffff\n      and\n      dup2\n      mstore\n      0x20\n      add\n      swap1\n      dup2\n      mstore\n      0x20\n      add\n      0x00\n      keccak256\n      0x00\n        /* \"Voter.sol\":564:591  hasVoted[msg.sender] = true */\n      0x0100\n      exp\n      dup2\n      sload\n      dup2\n      0xff\n      mul\n      not\n      and\n      swap1\n      dup4\n      iszero\n      iszero\n      mul\n      or\n      swap1\n      sstore\n      pop\n        /* \"Voter.sol\":634:635  1 */\n      0x01\n        /* \"Voter.sol\":618:623  votes */\n      0x00\n        /* \"Voter.sol\":624:630  option */\n      dup3\n        /* \"Voter.sol\":618:631  votes[option] */\n      dup2\n      sload\n      dup2\n      lt\n      tag_86\n      jumpi\n      tag_87\n      tag_74\n      jump\t// in\n    tag_87:\n    tag_86:\n      swap1\n      0x00\n      mstore\n      keccak256(0x00, 0x20)\n      add\n      sload\n        /* \"Voter.sol\":618:635  votes[option] + 1 */\n      tag_89\n      swap2\n      swap1\n      tag_90\n      jump\t// in\n    tag_89:\n        /* \"Voter.sol\":602:607  votes */\n      0x00\n        /* \"Voter.sol\":608:614  option */\n      dup3\n        /* \"Voter.sol\":602:615  votes[option] */\n      dup2\n      sload\n      dup2\n      lt\n      tag_91\n      jumpi\n      tag_92\n      tag_74\n      jump\t// in\n    tag_92:\n    tag_91:\n      swap1\n      0x00\n      mstore\n      keccak256(0x00, 0x20)\n      add\n        /* \"Voter.sol\":602:635  votes[option] = votes[option] + 1 */\n      dup2\n      swap1\n      sstore\n      pop\n        /* \"Voter.sol\":512:643  function recordVote(uint option) private {... */\n      pop\n      jump\t// out\n        /* \"Voter.sol\":1041:1192  function stringEqual(string memory a, string memory b) private pure returns (bool) {... */\n    tag_82:\n        /* \"Voter.sol\":1118:1122  bool */\n      0x00\n        /* \"Voter.sol\":1181:1182  b */\n      dup2\n        /* \"Voter.sol\":1165:1184  keccak256(bytes(b)) */\n      dup1\n      mload\n      swap1\n      0x20\n      add\n      keccak256\n        /* \"Voter.sol\":1158:1159  a */\n      dup4\n        /* \"Voter.sol\":1142:1161  keccak256(bytes(a)) */\n      dup1\n      mload\n      swap1\n      0x20\n      add\n      keccak256\n        /* \"Voter.sol\":1142:1184  keccak256(bytes(a)) == keccak256(bytes(b)) */\n      eq\n        /* \"Voter.sol\":1135:1184  return keccak256(bytes(a)) == keccak256(bytes(b)) */\n      swap1\n      pop\n        /* \"Voter.sol\":1041:1192  function stringEqual(string memory a, string memory b) private pure returns (bool) {... */\n      swap3\n      swap2\n      pop\n      pop\n      jump\t// out\n        /* \"#utility.yul\":7:82   */\n    tag_95:\n        /* \"#utility.yul\":40:46   */\n      0x00\n        /* \"#utility.yul\":73:75   */\n      0x40\n        /* \"#utility.yul\":67:76   */\n      mload\n        /* \"#utility.yul\":57:76   */\n      swap1\n      pop\n        /* \"#utility.yul\":7:82   */\n      swap1\n      jump\t// out\n        /* \"#utility.yul\":88:205   */\n    tag_96:\n        /* \"#utility.yul\":197:198   */\n      0x00\n        /* \"#utility.yul\":194:195   */\n      0x00\n        /* \"#utility.yul\":187:199   */\n      revert\n        /* \"#utility.yul\":211:328   */\n    tag_97:\n        /* \"#utility.yul\":320:321   */\n      0x00\n        /* \"#utility.yul\":317:318   */\n      0x00\n        /* \"#utility.yul\":310:322   */\n      revert\n        /* \"#utility.yul\":334:411   */\n    tag_98:\n        /* \"#utility.yul\":371:378   */\n      0x00\n        /* \"#utility.yul\":400:405   */\n      dup2\n        /* \"#utility.yul\":389:405   */\n      swap1\n      pop\n        /* \"#utility.yul\":334:411   */\n      swap2\n      swap1\n      pop\n      jump\t// out\n        /* \"#utility.yul\":417:539   */\n    tag_99:\n        /* \"#utility.yul\":490:514   */\n      tag_143\n        /* \"#utility.yul\":508:513   */\n      dup2\n        /* \"#utility.yul\":490:514   */\n      tag_98\n      jump\t// in\n    tag_143:\n        /* \"#utility.yul\":483:488   */\n      dup2\n        /* \"#utility.yul\":480:515   */\n      eq\n        /* \"#utility.yul\":470:533   */\n      tag_144\n      jumpi\n        /* \"#utility.yul\":529:530   */\n      0x00\n        /* \"#utility.yul\":526:527   */\n      0x00\n        /* \"#utility.yul\":519:531   */\n      revert\n        /* \"#utility.yul\":470:533   */\n    tag_144:\n        /* \"#utility.yul\":417:539   */\n      pop\n      jump\t// out\n        /* \"#utility.yul\":545:684   */\n    tag_100:\n        /* \"#utility.yul\":591:596   */\n      0x00\n        /* \"#utility.yul\":629:635   */\n      dup2\n        /* \"#utility.yul\":616:636   */\n      calldataload\n        /* \"#utility.yul\":607:636   */\n      swap1\n      pop\n        /* \"#utility.yul\":645:678   */\n      tag_146\n        /* \"#utility.yul\":672:677   */\n      dup2\n        /* \"#utility.yul\":645:678   */\n      tag_99\n      jump\t// in\n    tag_146:\n        /* \"#utility.yul\":545:684   */\n      swap3\n      swap2\n      pop\n      pop\n      jump\t// out\n        /* \"#utility.yul\":690:1019   */\n    tag_11:\n        /* \"#utility.yul\":749:755   */\n      0x00\n        /* \"#utility.yul\":798:800   */\n      0x20\n        /* \"#utility.yul\":786:795   */\n      dup3\n        /* \"#utility.yul\":777:784   */\n      dup5\n        /* \"#utility.yul\":773:796   */\n      sub\n        /* \"#utility.yul\":769:801   */\n      slt\n        /* \"#utility.yul\":766:885   */\n      iszero\n      tag_148\n      jumpi\n        /* \"#utility.yul\":804:883   */\n      tag_149\n      tag_96\n      jump\t// in\n    tag_149:\n        /* \"#utility.yul\":766:885   */\n    tag_148:\n        /* \"#utility.yul\":924:925   */\n      0x00\n        /* \"#utility.yul\":949:1002   */\n      tag_150\n        /* \"#utility.yul\":994:1001   */\n      dup5\n        /* \"#utility.yul\":985:991   */\n      dup3\n        /* \"#utility.yul\":974:983   */\n      dup6\n        /* \"#utility.yul\":970:992   */\n      add\n        /* \"#utility.yul\":949:1002   */\n      tag_100\n      jump\t// in\n    tag_150:\n        /* \"#utility.yul\":939:1002   */\n      swap2\n      pop\n        /* \"#utility.yul\":895:1012   */\n      pop\n        /* \"#utility.yul\":690:1019   */\n      swap3\n      swap2\n      pop\n      pop\n      jump\t// out\n        /* \"#utility.yul\":1025:1139   */\n    tag_101:\n        /* \"#utility.yul\":1092:1098   */\n      0x00\n        /* \"#utility.yul\":1126:1131   */\n      dup2\n        /* \"#utility.yul\":1120:1132   */\n      mload\n        /* \"#utility.yul\":1110:1132   */\n      swap1\n      pop\n        /* \"#utility.yul\":1025:1139   */\n      swap2\n      swap1\n      pop\n      jump\t// out\n        /* \"#utility.yul\":1145:1329   */\n    tag_102:\n        /* \"#utility.yul\":1244:1255   */\n      0x00\n        /* \"#utility.yul\":1278:1284   */\n      dup3\n        /* \"#utility.yul\":1273:1276   */\n      dup3\n        /* \"#utility.yul\":1266:1285   */\n      mstore\n        /* \"#utility.yul\":1318:1322   */\n      0x20\n        /* \"#utility.yul\":1313:1316   */\n      dup3\n        /* \"#utility.yul\":1309:1323   */\n      add\n        /* \"#utility.yul\":1294:1323   */\n      swap1\n      pop\n        /* \"#utility.yul\":1145:1329   */\n      swap3\n      swap2\n      pop\n      pop\n      jump\t// out\n        /* \"#utility.yul\":1335:1467   */\n    tag_103:\n        /* \"#utility.yul\":1402:1406   */\n      0x00\n        /* \"#utility.yul\":1425:1428   */\n      dup2\n        /* \"#utility.yul\":1417:1428   */\n      swap1\n      pop\n        /* \"#utility.yul\":1455:1459   */\n      0x20\n        /* \"#utility.yul\":1450:1453   */\n      dup3\n        /* \"#utility.yul\":1446:1460   */\n      add\n        /* \"#utility.yul\":1438:1460   */\n      swap1\n      pop\n        /* \"#utility.yul\":1335:1467   */\n      swap2\n      swap1\n      pop\n      jump\t// out\n        /* \"#utility.yul\":1473:1581   */\n    tag_104:\n        /* \"#utility.yul\":1550:1574   */\n      tag_155\n        /* \"#utility.yul\":1568:1573   */\n      dup2\n        /* \"#utility.yul\":1550:1574   */\n      tag_98\n      jump\t// in\n    tag_155:\n        /* \"#utility.yul\":1545:1548   */\n      dup3\n        /* \"#utility.yul\":1538:1575   */\n      mstore\n        /* \"#utility.yul\":1473:1581   */\n      pop\n      pop\n      jump\t// out\n        /* \"#utility.yul\":1587:1766   */\n    tag_105:\n        /* \"#utility.yul\":1656:1666   */\n      0x00\n        /* \"#utility.yul\":1677:1723   */\n      tag_157\n        /* \"#utility.yul\":1719:1722   */\n      dup4\n        /* \"#utility.yul\":1711:1717   */\n      dup4\n        /* \"#utility.yul\":1677:1723   */\n      tag_104\n      jump\t// in\n    tag_157:\n        /* \"#utility.yul\":1755:1759   */\n      0x20\n        /* \"#utility.yul\":1750:1753   */\n      dup4\n        /* \"#utility.yul\":1746:1760   */\n      add\n        /* \"#utility.yul\":1732:1760   */\n      swap1\n      pop\n        /* \"#utility.yul\":1587:1766   */\n      swap3\n      swap2\n      pop\n      pop\n      jump\t// out\n        /* \"#utility.yul\":1772:1885   */\n    tag_106:\n        /* \"#utility.yul\":1842:1846   */\n      0x00\n        /* \"#utility.yul\":1874:1878   */\n      0x20\n        /* \"#utility.yul\":1869:1872   */\n      dup3\n        /* \"#utility.yul\":1865:1879   */\n      add\n        /* \"#utility.yul\":1857:1879   */\n      swap1\n      pop\n        /* \"#utility.yul\":1772:1885   */\n      swap2\n      swap1\n      pop\n      jump\t// out\n        /* \"#utility.yul\":1921:2653   */\n    tag_107:\n        /* \"#utility.yul\":2040:2043   */\n      0x00\n        /* \"#utility.yul\":2069:2123   */\n      tag_160\n        /* \"#utility.yul\":2117:2122   */\n      dup3\n        /* \"#utility.yul\":2069:2123   */\n      tag_101\n      jump\t// in\n    tag_160:\n        /* \"#utility.yul\":2139:2225   */\n      tag_161\n        /* \"#utility.yul\":2218:2224   */\n      dup2\n        /* \"#utility.yul\":2213:2216   */\n      dup6\n        /* \"#utility.yul\":2139:2225   */\n      tag_102\n      jump\t// in\n    tag_161:\n        /* \"#utility.yul\":2132:2225   */\n      swap4\n      pop\n        /* \"#utility.yul\":2249:2305   */\n      tag_162\n        /* \"#utility.yul\":2299:2304   */\n      dup4\n        /* \"#utility.yul\":2249:2305   */\n      tag_103\n      jump\t// in\n    tag_162:\n        /* \"#utility.yul\":2328:2335   */\n      dup1\n        /* \"#utility.yul\":2359:2360   */\n      0x00\n        /* \"#utility.yul\":2344:2628   */\n    tag_163:\n        /* \"#utility.yul\":2369:2375   */\n      dup4\n        /* \"#utility.yul\":2366:2367   */\n      dup2\n        /* \"#utility.yul\":2363:2376   */\n      lt\n        /* \"#utility.yul\":2344:2628   */\n      iszero\n      tag_165\n      jumpi\n        /* \"#utility.yul\":2445:2451   */\n      dup2\n        /* \"#utility.yul\":2439:2452   */\n      mload\n        /* \"#utility.yul\":2472:2535   */\n      tag_166\n        /* \"#utility.yul\":2531:2534   */\n      dup9\n        /* \"#utility.yul\":2516:2529   */\n      dup3\n        /* \"#utility.yul\":2472:2535   */\n      tag_105\n      jump\t// in\n    tag_166:\n        /* \"#utility.yul\":2465:2535   */\n      swap8\n      pop\n        /* \"#utility.yul\":2558:2618   */\n      tag_167\n        /* \"#utility.yul\":2611:2617   */\n      dup4\n        /* \"#utility.yul\":2558:2618   */\n      tag_106\n      jump\t// in\n    tag_167:\n        /* \"#utility.yul\":2548:2618   */\n      swap3\n      pop\n        /* \"#utility.yul\":2404:2628   */\n      pop\n        /* \"#utility.yul\":2391:2392   */\n      0x01\n        /* \"#utility.yul\":2388:2389   */\n      dup2\n        /* \"#utility.yul\":2384:2393   */\n      add\n        /* \"#utility.yul\":2379:2393   */\n      swap1\n      pop\n        /* \"#utility.yul\":2344:2628   */\n      jump(tag_163)\n    tag_165:\n        /* \"#utility.yul\":2348:2362   */\n      pop\n        /* \"#utility.yul\":2644:2647   */\n      dup6\n        /* \"#utility.yul\":2637:2647   */\n      swap4\n      pop\n        /* \"#utility.yul\":2045:2653   */\n      pop\n      pop\n      pop\n        /* \"#utility.yul\":1921:2653   */\n      swap3\n      swap2\n      pop\n      pop\n      jump\t// out\n        /* \"#utility.yul\":2659:3032   */\n    tag_16:\n        /* \"#utility.yul\":2802:2806   */\n      0x00\n        /* \"#utility.yul\":2840:2842   */\n      0x20\n        /* \"#utility.yul\":2829:2838   */\n      dup3\n        /* \"#utility.yul\":2825:2843   */\n      add\n        /* \"#utility.yul\":2817:2843   */\n      swap1\n      pop\n        /* \"#utility.yul\":2889:2898   */\n      dup2\n        /* \"#utility.yul\":2883:2887   */\n      dup2\n        /* \"#utility.yul\":2879:2899   */\n      sub\n        /* \"#utility.yul\":2875:2876   */\n      0x00\n        /* \"#utility.yul\":2864:2873   */\n      dup4\n        /* \"#utility.yul\":2860:2877   */\n      add\n        /* \"#utility.yul\":2853:2900   */\n      mstore\n        /* \"#utility.yul\":2917:3025   */\n      tag_169\n        /* \"#utility.yul\":3020:3024   */\n      dup2\n        /* \"#utility.yul\":3011:3017   */\n      dup5\n        /* \"#utility.yul\":2917:3025   */\n      tag_107\n      jump\t// in\n    tag_169:\n        /* \"#utility.yul\":2909:3025   */\n      swap1\n      pop\n        /* \"#utility.yul\":2659:3032   */\n      swap3\n      swap2\n      pop\n      pop\n      jump\t// out\n        /* \"#utility.yul\":3038:3137   */\n    tag_108:\n        /* \"#utility.yul\":3090:3096   */\n      0x00\n        /* \"#utility.yul\":3124:3129   */\n      dup2\n        /* \"#utility.yul\":3118:3130   */\n      mload\n        /* \"#utility.yul\":3108:3130   */\n      swap1\n      pop\n        /* \"#utility.yul\":3038:3137   */\n      swap2\n      swap1\n      pop\n      jump\t// out\n        /* \"#utility.yul\":3143:3312   */\n    tag_109:\n        /* \"#utility.yul\":3227:3238   */\n      0x00\n        /* \"#utility.yul\":3261:3267   */\n      dup3\n        /* \"#utility.yul\":3256:3259   */\n      dup3\n        /* \"#utility.yul\":3249:3268   */\n      mstore\n        /* \"#utility.yul\":3301:3305   */\n      0x20\n        /* \"#utility.yul\":3296:3299   */\n      dup3\n        /* \"#utility.yul\":3292:3306   */\n      add\n        /* \"#utility.yul\":3277:3306   */\n      swap1\n      pop\n        /* \"#utility.yul\":3143:3312   */\n      swap3\n      swap2\n      pop\n      pop\n      jump\t// out\n        /* \"#utility.yul\":3318:3457   */\n    tag_110:\n        /* \"#utility.yul\":3407:3413   */\n      dup3\n        /* \"#utility.yul\":3402:3405   */\n      dup2\n        /* \"#utility.yul\":3397:3400   */\n      dup4\n        /* \"#utility.yul\":3391:3414   */\n      mcopy\n        /* \"#utility.yul\":3448:3449   */\n      0x00\n        /* \"#utility.yul\":3439:3445   */\n      dup4\n        /* \"#utility.yul\":3434:3437   */\n      dup4\n        /* \"#utility.yul\":3430:3446   */\n      add\n        /* \"#utility.yul\":3423:3450   */\n      mstore\n        /* \"#utility.yul\":3318:3457   */\n      pop\n      pop\n      pop\n      jump\t// out\n        /* \"#utility.yul\":3463:3565   */\n    tag_111:\n        /* \"#utility.yul\":3504:3510   */\n      0x00\n        /* \"#utility.yul\":3555:3557   */\n      0x1f\n        /* \"#utility.yul\":3551:3558   */\n      not\n        /* \"#utility.yul\":3546:3548   */\n      0x1f\n        /* \"#utility.yul\":3539:3544   */\n      dup4\n        /* \"#utility.yul\":3535:3549   */\n      add\n        /* \"#utility.yul\":3531:3559   */\n      and\n        /* \"#utility.yul\":3521:3559   */\n      swap1\n      pop\n        /* \"#utility.yul\":3463:3565   */\n      swap2\n      swap1\n      pop\n      jump\t// out\n        /* \"#utility.yul\":3571:3948   */\n    tag_112:\n        /* \"#utility.yul\":3659:3662   */\n      0x00\n        /* \"#utility.yul\":3687:3726   */\n      tag_175\n        /* \"#utility.yul\":3720:3725   */\n      dup3\n        /* \"#utility.yul\":3687:3726   */\n      tag_108\n      jump\t// in\n    tag_175:\n        /* \"#utility.yul\":3742:3813   */\n      tag_176\n        /* \"#utility.yul\":3806:3812   */\n      dup2\n        /* \"#utility.yul\":3801:3804   */\n      dup6\n        /* \"#utility.yul\":3742:3813   */\n      tag_109\n      jump\t// in\n    tag_176:\n        /* \"#utility.yul\":3735:3813   */\n      swap4\n      pop\n        /* \"#utility.yul\":3822:3887   */\n      tag_177\n        /* \"#utility.yul\":3880:3886   */\n      dup2\n        /* \"#utility.yul\":3875:3878   */\n      dup6\n        /* \"#utility.yul\":3868:3872   */\n      0x20\n        /* \"#utility.yul\":3861:3866   */\n      dup7\n        /* \"#utility.yul\":3857:3873   */\n      add\n        /* \"#utility.yul\":3822:3887   */\n      tag_110\n      jump\t// in\n    tag_177:\n        /* \"#utility.yul\":3912:3941   */\n      tag_178\n        /* \"#utility.yul\":3934:3940   */\n      dup2\n        /* \"#utility.yul\":3912:3941   */\n      tag_111\n      jump\t// in\n    tag_178:\n        /* \"#utility.yul\":3907:3910   */\n      dup5\n        /* \"#utility.yul\":3903:3942   */\n      add\n        /* \"#utility.yul\":3896:3942   */\n      swap2\n      pop\n        /* \"#utility.yul\":3663:3948   */\n      pop\n        /* \"#utility.yul\":3571:3948   */\n      swap3\n      swap2\n      pop\n      pop\n      jump\t// out\n        /* \"#utility.yul\":3954:4267   */\n    tag_21:\n        /* \"#utility.yul\":4067:4071   */\n      0x00\n        /* \"#utility.yul\":4105:4107   */\n      0x20\n        /* \"#utility.yul\":4094:4103   */\n      dup3\n        /* \"#utility.yul\":4090:4108   */\n      add\n        /* \"#utility.yul\":4082:4108   */\n      swap1\n      pop\n        /* \"#utility.yul\":4154:4163   */\n      dup2\n        /* \"#utility.yul\":4148:4152   */\n      dup2\n        /* \"#utility.yul\":4144:4164   */\n      sub\n        /* \"#utility.yul\":4140:4141   */\n      0x00\n        /* \"#utility.yul\":4129:4138   */\n      dup4\n        /* \"#utility.yul\":4125:4142   */\n      add\n        /* \"#utility.yul\":4118:4165   */\n      mstore\n        /* \"#utility.yul\":4182:4260   */\n      tag_180\n        /* \"#utility.yul\":4255:4259   */\n      dup2\n        /* \"#utility.yul\":4246:4252   */\n      dup5\n        /* \"#utility.yul\":4182:4260   */\n      tag_112\n      jump\t// in\n    tag_180:\n        /* \"#utility.yul\":4174:4260   */\n      swap1\n      pop\n        /* \"#utility.yul\":3954:4267   */\n      swap3\n      swap2\n      pop\n      pop\n      jump\t// out\n        /* \"#utility.yul\":4273:4391   */\n    tag_113:\n        /* \"#utility.yul\":4360:4384   */\n      tag_182\n        /* \"#utility.yul\":4378:4383   */\n      dup2\n        /* \"#utility.yul\":4360:4384   */\n      tag_98\n      jump\t// in\n    tag_182:\n        /* \"#utility.yul\":4355:4358   */\n      dup3\n        /* \"#utility.yul\":4348:4385   */\n      mstore\n        /* \"#utility.yul\":4273:4391   */\n      pop\n      pop\n      jump\t// out\n        /* \"#utility.yul\":4397:4619   */\n    tag_26:\n        /* \"#utility.yul\":4490:4494   */\n      0x00\n        /* \"#utility.yul\":4528:4530   */\n      0x20\n        /* \"#utility.yul\":4517:4526   */\n      dup3\n        /* \"#utility.yul\":4513:4531   */\n      add\n        /* \"#utility.yul\":4505:4531   */\n      swap1\n      pop\n        /* \"#utility.yul\":4541:4612   */\n      tag_184\n        /* \"#utility.yul\":4609:4610   */\n      0x00\n        /* \"#utility.yul\":4598:4607   */\n      dup4\n        /* \"#utility.yul\":4594:4611   */\n      add\n        /* \"#utility.yul\":4585:4591   */\n      dup5\n        /* \"#utility.yul\":4541:4612   */\n      tag_113\n      jump\t// in\n    tag_184:\n        /* \"#utility.yul\":4397:4619   */\n      swap3\n      swap2\n      pop\n      pop\n      jump\t// out\n        /* \"#utility.yul\":4625:4749   */\n    tag_114:\n        /* \"#utility.yul\":4702:4708   */\n      0x00\n        /* \"#utility.yul\":4736:4741   */\n      dup2\n        /* \"#utility.yul\":4730:4742   */\n      mload\n        /* \"#utility.yul\":4720:4742   */\n      swap1\n      pop\n        /* \"#utility.yul\":4625:4749   */\n      swap2\n      swap1\n      pop\n      jump\t// out\n        /* \"#utility.yul\":4755:4949   */\n    tag_115:\n        /* \"#utility.yul\":4864:4875   */\n      0x00\n        /* \"#utility.yul\":4898:4904   */\n      dup3\n        /* \"#utility.yul\":4893:4896   */\n      dup3\n        /* \"#utility.yul\":4886:4905   */\n      mstore\n        /* \"#utility.yul\":4938:4942   */\n      0x20\n        /* \"#utility.yul\":4933:4936   */\n      dup3\n        /* \"#utility.yul\":4929:4943   */\n      add\n        /* \"#utility.yul\":4914:4943   */\n      swap1\n      pop\n        /* \"#utility.yul\":4755:4949   */\n      swap3\n      swap2\n      pop\n      pop\n      jump\t// out\n        /* \"#utility.yul\":4955:5097   */\n    tag_116:\n        /* \"#utility.yul\":5032:5036   */\n      0x00\n        /* \"#utility.yul\":5055:5058   */\n      dup2\n        /* \"#utility.yul\":5047:5058   */\n      swap1\n      pop\n        /* \"#utility.yul\":5085:5089   */\n      0x20\n        /* \"#utility.yul\":5080:5083   */\n      dup3\n        /* \"#utility.yul\":5076:5090   */\n      add\n        /* \"#utility.yul\":5068:5090   */\n      swap1\n      pop\n        /* \"#utility.yul\":4955:5097   */\n      swap2\n      swap1\n      pop\n      jump\t// out\n        /* \"#utility.yul\":5103:5262   */\n    tag_117:\n        /* \"#utility.yul\":5177:5188   */\n      0x00\n        /* \"#utility.yul\":5211:5217   */\n      dup3\n        /* \"#utility.yul\":5206:5209   */\n      dup3\n        /* \"#utility.yul\":5199:5218   */\n      mstore\n        /* \"#utility.yul\":5251:5255   */\n      0x20\n        /* \"#utility.yul\":5246:5249   */\n      dup3\n        /* \"#utility.yul\":5242:5256   */\n      add\n        /* \"#utility.yul\":5227:5256   */\n      swap1\n      pop\n        /* \"#utility.yul\":5103:5262   */\n      swap3\n      swap2\n      pop\n      pop\n      jump\t// out\n        /* \"#utility.yul\":5268:5625   */\n    tag_118:\n        /* \"#utility.yul\":5346:5349   */\n      0x00\n        /* \"#utility.yul\":5374:5413   */\n      tag_190\n        /* \"#utility.yul\":5407:5412   */\n      dup3\n        /* \"#utility.yul\":5374:5413   */\n      tag_108\n      jump\t// in\n    tag_190:\n        /* \"#utility.yul\":5429:5490   */\n      tag_191\n        /* \"#utility.yul\":5483:5489   */\n      dup2\n        /* \"#utility.yul\":5478:5481   */\n      dup6\n        /* \"#utility.yul\":5429:5490   */\n      tag_117\n      jump\t// in\n    tag_191:\n        /* \"#utility.yul\":5422:5490   */\n      swap4\n      pop\n        /* \"#utility.yul\":5499:5564   */\n      tag_192\n        /* \"#utility.yul\":5557:5563   */\n      dup2\n        /* \"#utility.yul\":5552:5555   */\n      dup6\n        /* \"#utility.yul\":5545:5549   */\n      0x20\n        /* \"#utility.yul\":5538:5543   */\n      dup7\n        /* \"#utility.yul\":5534:5550   */\n      add\n        /* \"#utility.yul\":5499:5564   */\n      tag_110\n      jump\t// in\n    tag_192:\n        /* \"#utility.yul\":5589:5618   */\n      tag_193\n        /* \"#utility.yul\":5611:5617   */\n      dup2\n        /* \"#utility.yul\":5589:5618   */\n      tag_111\n      jump\t// in\n    tag_193:\n        /* \"#utility.yul\":5584:5587   */\n      dup5\n        /* \"#utility.yul\":5580:5619   */\n      add\n        /* \"#utility.yul\":5573:5619   */\n      swap2\n      pop\n        /* \"#utility.yul\":5350:5625   */\n      pop\n        /* \"#utility.yul\":5268:5625   */\n      swap3\n      swap2\n      pop\n      pop\n      jump\t// out\n        /* \"#utility.yul\":5631:5827   */\n    tag_119:\n        /* \"#utility.yul\":5720:5730   */\n      0x00\n        /* \"#utility.yul\":5755:5821   */\n      tag_195\n        /* \"#utility.yul\":5817:5820   */\n      dup4\n        /* \"#utility.yul\":5809:5815   */\n      dup4\n        /* \"#utility.yul\":5755:5821   */\n      tag_118\n      jump\t// in\n    tag_195:\n        /* \"#utility.yul\":5741:5821   */\n      swap1\n      pop\n        /* \"#utility.yul\":5631:5827   */\n      swap3\n      swap2\n      pop\n      pop\n      jump\t// out\n        /* \"#utility.yul\":5833:5956   */\n    tag_120:\n        /* \"#utility.yul\":5913:5917   */\n      0x00\n        /* \"#utility.yul\":5945:5949   */\n      0x20\n        /* \"#utility.yul\":5940:5943   */\n      dup3\n        /* \"#utility.yul\":5936:5950   */\n      add\n        /* \"#utility.yul\":5928:5950   */\n      swap1\n      pop\n        /* \"#utility.yul\":5833:5956   */\n      swap2\n      swap1\n      pop\n      jump\t// out\n        /* \"#utility.yul\":5990:6981   */\n    tag_121:\n        /* \"#utility.yul\":6129:6132   */\n      0x00\n        /* \"#utility.yul\":6158:6222   */\n      tag_198\n        /* \"#utility.yul\":6216:6221   */\n      dup3\n        /* \"#utility.yul\":6158:6222   */\n      tag_114\n      jump\t// in\n    tag_198:\n        /* \"#utility.yul\":6238:6334   */\n      tag_199\n        /* \"#utility.yul\":6327:6333   */\n      dup2\n        /* \"#utility.yul\":6322:6325   */\n      dup6\n        /* \"#utility.yul\":6238:6334   */\n      tag_115\n      jump\t// in\n    tag_199:\n        /* \"#utility.yul\":6231:6334   */\n      swap4\n      pop\n        /* \"#utility.yul\":6360:6363   */\n      dup4\n        /* \"#utility.yul\":6405:6409   */\n      0x20\n        /* \"#utility.yul\":6397:6403   */\n      dup3\n        /* \"#utility.yul\":6393:6410   */\n      mul\n        /* \"#utility.yul\":6388:6391   */\n      dup6\n        /* \"#utility.yul\":6384:6411   */\n      add\n        /* \"#utility.yul\":6435:6501   */\n      tag_200\n        /* \"#utility.yul\":6495:6500   */\n      dup6\n        /* \"#utility.yul\":6435:6501   */\n      tag_116\n      jump\t// in\n    tag_200:\n        /* \"#utility.yul\":6524:6531   */\n      dup1\n        /* \"#utility.yul\":6555:6556   */\n      0x00\n        /* \"#utility.yul\":6540:6936   */\n    tag_201:\n        /* \"#utility.yul\":6565:6571   */\n      dup6\n        /* \"#utility.yul\":6562:6563   */\n      dup2\n        /* \"#utility.yul\":6559:6572   */\n      lt\n        /* \"#utility.yul\":6540:6936   */\n      iszero\n      tag_203\n      jumpi\n        /* \"#utility.yul\":6636:6645   */\n      dup5\n        /* \"#utility.yul\":6630:6634   */\n      dup5\n        /* \"#utility.yul\":6626:6646   */\n      sub\n        /* \"#utility.yul\":6621:6624   */\n      dup10\n        /* \"#utility.yul\":6614:6647   */\n      mstore\n        /* \"#utility.yul\":6687:6693   */\n      dup2\n        /* \"#utility.yul\":6681:6694   */\n      mload\n        /* \"#utility.yul\":6715:6799   */\n      tag_204\n        /* \"#utility.yul\":6794:6798   */\n      dup6\n        /* \"#utility.yul\":6779:6792   */\n      dup3\n        /* \"#utility.yul\":6715:6799   */\n      tag_119\n      jump\t// in\n    tag_204:\n        /* \"#utility.yul\":6707:6799   */\n      swap5\n      pop\n        /* \"#utility.yul\":6822:6892   */\n      tag_205\n        /* \"#utility.yul\":6885:6891   */\n      dup4\n        /* \"#utility.yul\":6822:6892   */\n      tag_120\n      jump\t// in\n    tag_205:\n        /* \"#utility.yul\":6812:6892   */\n      swap3\n      pop\n        /* \"#utility.yul\":6921:6925   */\n      0x20\n        /* \"#utility.yul\":6916:6919   */\n      dup11\n        /* \"#utility.yul\":6912:6926   */\n      add\n        /* \"#utility.yul\":6905:6926   */\n      swap10\n      pop\n        /* \"#utility.yul\":6600:6936   */\n      pop\n        /* \"#utility.yul\":6587:6588   */\n      0x01\n        /* \"#utility.yul\":6584:6585   */\n      dup2\n        /* \"#utility.yul\":6580:6589   */\n      add\n        /* \"#utility.yul\":6575:6589   */\n      swap1\n      pop\n        /* \"#utility.yul\":6540:6936   */\n      jump(tag_201)\n    tag_203:\n        /* \"#utility.yul\":6544:6558   */\n      pop\n        /* \"#utility.yul\":6952:6956   */\n      dup3\n        /* \"#utility.yul\":6945:6956   */\n      swap8\n      pop\n        /* \"#utility.yul\":6972:6975   */\n      dup8\n        /* \"#utility.yul\":6965:6975   */\n      swap6\n      pop\n        /* \"#utility.yul\":6134:6981   */\n      pop\n      pop\n      pop\n      pop\n      pop\n        /* \"#utility.yul\":5990:6981   */\n      swap3\n      swap2\n      pop\n      pop\n      jump\t// out\n        /* \"#utility.yul\":6987:7400   */\n    tag_30:\n        /* \"#utility.yul\":7150:7154   */\n      0x00\n        /* \"#utility.yul\":7188:7190   */\n      0x20\n        /* \"#utility.yul\":7177:7186   */\n      dup3\n        /* \"#utility.yul\":7173:7191   */\n      add\n        /* \"#utility.yul\":7165:7191   */\n      swap1\n      pop\n        /* \"#utility.yul\":7237:7246   */\n      dup2\n        /* \"#utility.yul\":7231:7235   */\n      dup2\n        /* \"#utility.yul\":7227:7247   */\n      sub\n        /* \"#utility.yul\":7223:7224   */\n      0x00\n        /* \"#utility.yul\":7212:7221   */\n      dup4\n        /* \"#utility.yul\":7208:7225   */\n      add\n        /* \"#utility.yul\":7201:7248   */\n      mstore\n        /* \"#utility.yul\":7265:7393   */\n      tag_207\n        /* \"#utility.yul\":7388:7392   */\n      dup2\n        /* \"#utility.yul\":7379:7385   */\n      dup5\n        /* \"#utility.yul\":7265:7393   */\n      tag_121\n      jump\t// in\n    tag_207:\n        /* \"#utility.yul\":7257:7393   */\n      swap1\n      pop\n        /* \"#utility.yul\":6987:7400   */\n      swap3\n      swap2\n      pop\n      pop\n      jump\t// out\n        /* \"#utility.yul\":7406:7523   */\n    tag_122:\n        /* \"#utility.yul\":7515:7516   */\n      0x00\n        /* \"#utility.yul\":7512:7513   */\n      0x00\n        /* \"#utility.yul\":7505:7517   */\n      revert\n        /* \"#utility.yul\":7529:7646   */\n    tag_123:\n        /* \"#utility.yul\":7638:7639   */\n      0x00\n        /* \"#utility.yul\":7635:7636   */\n      0x00\n        /* \"#utility.yul\":7628:7640   */\n      revert\n        /* \"#utility.yul\":7652:7832   */\n    tag_124:\n        /* \"#utility.yul\":7700:7777   */\n      0x4e487b7100000000000000000000000000000000000000000000000000000000\n        /* \"#utility.yul\":7697:7698   */\n      0x00\n        /* \"#utility.yul\":7690:7778   */\n      mstore\n        /* \"#utility.yul\":7797:7801   */\n      0x41\n        /* \"#utility.yul\":7794:7795   */\n      0x04\n        /* \"#utility.yul\":7787:7802   */\n      mstore\n        /* \"#utility.yul\":7821:7825   */\n      0x24\n        /* \"#utility.yul\":7818:7819   */\n      0x00\n        /* \"#utility.yul\":7811:7826   */\n      revert\n        /* \"#utility.yul\":7838:8119   */\n    tag_125:\n        /* \"#utility.yul\":7921:7948   */\n      tag_212\n        /* \"#utility.yul\":7943:7947   */\n      dup3\n        /* \"#utility.yul\":7921:7948   */\n      tag_111\n      jump\t// in\n    tag_212:\n        /* \"#utility.yul\":7913:7919   */\n      dup2\n        /* \"#utility.yul\":7909:7949   */\n      add\n        /* \"#utility.yul\":8051:8057   */\n      dup2\n        /* \"#utility.yul\":8039:8049   */\n      dup2\n        /* \"#utility.yul\":8036:8058   */\n      lt\n        /* \"#utility.yul\":8015:8033   */\n      0xffffffffffffffff\n        /* \"#utility.yul\":8003:8013   */\n      dup3\n        /* \"#utility.yul\":8000:8034   */\n      gt\n        /* \"#utility.yul\":7997:8059   */\n      or\n        /* \"#utility.yul\":7994:8082   */\n      iszero\n      tag_213\n      jumpi\n        /* \"#utility.yul\":8062:8080   */\n      tag_214\n      tag_124\n      jump\t// in\n    tag_214:\n        /* \"#utility.yul\":7994:8082   */\n    tag_213:\n        /* \"#utility.yul\":8102:8112   */\n      dup1\n        /* \"#utility.yul\":8098:8100   */\n      0x40\n        /* \"#utility.yul\":8091:8113   */\n      mstore\n        /* \"#utility.yul\":7881:8119   */\n      pop\n        /* \"#utility.yul\":7838:8119   */\n      pop\n      pop\n      jump\t// out\n        /* \"#utility.yul\":8125:8254   */\n    tag_126:\n        /* \"#utility.yul\":8159:8165   */\n      0x00\n        /* \"#utility.yul\":8186:8206   */\n      tag_216\n      tag_95\n      jump\t// in\n    tag_216:\n        /* \"#utility.yul\":8176:8206   */\n      swap1\n      pop\n        /* \"#utility.yul\":8215:8248   */\n      tag_217\n        /* \"#utility.yul\":8243:8247   */\n      dup3\n        /* \"#utility.yul\":8235:8241   */\n      dup3\n        /* \"#utility.yul\":8215:8248   */\n      tag_125\n      jump\t// in\n    tag_217:\n        /* \"#utility.yul\":8125:8254   */\n      swap2\n      swap1\n      pop\n      jump\t// out\n        /* \"#utility.yul\":8260:8568   */\n    tag_127:\n        /* \"#utility.yul\":8322:8326   */\n      0x00\n        /* \"#utility.yul\":8412:8430   */\n      0xffffffffffffffff\n        /* \"#utility.yul\":8404:8410   */\n      dup3\n        /* \"#utility.yul\":8401:8431   */\n      gt\n        /* \"#utility.yul\":8398:8454   */\n      iszero\n      tag_219\n      jumpi\n        /* \"#utility.yul\":8434:8452   */\n      tag_220\n      tag_124\n      jump\t// in\n    tag_220:\n        /* \"#utility.yul\":8398:8454   */\n    tag_219:\n        /* \"#utility.yul\":8472:8501   */\n      tag_221\n        /* \"#utility.yul\":8494:8500   */\n      dup3\n        /* \"#utility.yul\":8472:8501   */\n      tag_111\n      jump\t// in\n    tag_221:\n        /* \"#utility.yul\":8464:8501   */\n      swap1\n      pop\n        /* \"#utility.yul\":8556:8560   */\n      0x20\n        /* \"#utility.yul\":8550:8554   */\n      dup2\n        /* \"#utility.yul\":8546:8561   */\n      add\n        /* \"#utility.yul\":8538:8561   */\n      swap1\n      pop\n        /* \"#utility.yul\":8260:8568   */\n      swap2\n      swap1\n      pop\n      jump\t// out\n        /* \"#utility.yul\":8574:8722   */\n    tag_128:\n        /* \"#utility.yul\":8672:8678   */\n      dup3\n        /* \"#utility.yul\":8667:8670   */\n      dup2\n        /* \"#utility.yul\":8662:8665   */\n      dup4\n        /* \"#utility.yul\":8649:8679   */\n      calldatacopy\n        /* \"#utility.yul\":8713:8714   */\n      0x00\n        /* \"#utility.yul\":8704:8710   */\n      dup4\n        /* \"#utility.yul\":8699:8702   */\n      dup4\n        /* \"#utility.yul\":8695:8711   */\n      add\n        /* \"#utility.yul\":8688:8715   */\n      mstore\n        /* \"#utility.yul\":8574:8722   */\n      pop\n      pop\n      pop\n      jump\t// out\n        /* \"#utility.yul\":8728:9153   */\n    tag_129:\n        /* \"#utility.yul\":8806:8811   */\n      0x00\n        /* \"#utility.yul\":8831:8897   */\n      tag_224\n        /* \"#utility.yul\":8847:8896   */\n      tag_225\n        /* \"#utility.yul\":8889:8895   */\n      dup5\n        /* \"#utility.yul\":8847:8896   */\n      tag_127\n      jump\t// in\n    tag_225:\n        /* \"#utility.yul\":8831:8897   */\n      tag_126\n      jump\t// in\n    tag_224:\n        /* \"#utility.yul\":8822:8897   */\n      swap1\n      pop\n        /* \"#utility.yul\":8920:8926   */\n      dup3\n        /* \"#utility.yul\":8913:8918   */\n      dup2\n        /* \"#utility.yul\":8906:8927   */\n      mstore\n        /* \"#utility.yul\":8958:8962   */\n      0x20\n        /* \"#utility.yul\":8951:8956   */\n      dup2\n        /* \"#utility.yul\":8947:8963   */\n      add\n        /* \"#utility.yul\":8996:8999   */\n      dup5\n        /* \"#utility.yul\":8987:8993   */\n      dup5\n        /* \"#utility.yul\":8982:8985   */\n      dup5\n        /* \"#utility.yul\":8978:8994   */\n      add\n        /* \"#utility.yul\":8975:9000   */\n      gt\n        /* \"#utility.yul\":8972:9084   */\n      iszero\n      tag_226\n      jumpi\n        /* \"#utility.yul\":9003:9082   */\n      tag_227\n      tag_123\n      jump\t// in\n    tag_227:\n        /* \"#utility.yul\":8972:9084   */\n    tag_226:\n        /* \"#utility.yul\":9093:9147   */\n      tag_228\n        /* \"#utility.yul\":9140:9146   */\n      dup5\n        /* \"#utility.yul\":9135:9138   */\n      dup3\n        /* \"#utility.yul\":9130:9133   */\n      dup6\n        /* \"#utility.yul\":9093:9147   */\n      tag_128\n      jump\t// in\n    tag_228:\n        /* \"#utility.yul\":8812:9153   */\n      pop\n        /* \"#utility.yul\":8728:9153   */\n      swap4\n      swap3\n      pop\n      pop\n      pop\n      jump\t// out\n        /* \"#utility.yul\":9173:9513   */\n    tag_130:\n        /* \"#utility.yul\":9229:9234   */\n      0x00\n        /* \"#utility.yul\":9278:9281   */\n      dup3\n        /* \"#utility.yul\":9271:9275   */\n      0x1f\n        /* \"#utility.yul\":9263:9269   */\n      dup4\n        /* \"#utility.yul\":9259:9276   */\n      add\n        /* \"#utility.yul\":9255:9282   */\n      slt\n        /* \"#utility.yul\":9245:9367   */\n      tag_230\n      jumpi\n        /* \"#utility.yul\":9286:9365   */\n      tag_231\n      tag_122\n      jump\t// in\n    tag_231:\n        /* \"#utility.yul\":9245:9367   */\n    tag_230:\n        /* \"#utility.yul\":9403:9409   */\n      dup2\n        /* \"#utility.yul\":9390:9410   */\n      calldataload\n        /* \"#utility.yul\":9428:9507   */\n      tag_232\n        /* \"#utility.yul\":9503:9506   */\n      dup5\n        /* \"#utility.yul\":9495:9501   */\n      dup3\n        /* \"#utility.yul\":9488:9492   */\n      0x20\n        /* \"#utility.yul\":9480:9486   */\n      dup7\n        /* \"#utility.yul\":9476:9493   */\n      add\n        /* \"#utility.yul\":9428:9507   */\n      tag_129\n      jump\t// in\n    tag_232:\n        /* \"#utility.yul\":9419:9507   */\n      swap2\n      pop\n        /* \"#utility.yul\":9235:9513   */\n      pop\n        /* \"#utility.yul\":9173:9513   */\n      swap3\n      swap2\n      pop\n      pop\n      jump\t// out\n        /* \"#utility.yul\":9519:10028   */\n    tag_33:\n        /* \"#utility.yul\":9588:9594   */\n      0x00\n        /* \"#utility.yul\":9637:9639   */\n      0x20\n        /* \"#utility.yul\":9625:9634   */\n      dup3\n        /* \"#utility.yul\":9616:9623   */\n      dup5\n        /* \"#utility.yul\":9612:9635   */\n      sub\n        /* \"#utility.yul\":9608:9640   */\n      slt\n        /* \"#utility.yul\":9605:9724   */\n      iszero\n      tag_234\n      jumpi\n        /* \"#utility.yul\":9643:9722   */\n      tag_235\n      tag_96\n      jump\t// in\n    tag_235:\n        /* \"#utility.yul\":9605:9724   */\n    tag_234:\n        /* \"#utility.yul\":9791:9792   */\n      0x00\n        /* \"#utility.yul\":9780:9789   */\n      dup3\n        /* \"#utility.yul\":9776:9793   */\n      add\n        /* \"#utility.yul\":9763:9794   */\n      calldataload\n        /* \"#utility.yul\":9821:9839   */\n      0xffffffffffffffff\n        /* \"#utility.yul\":9813:9819   */\n      dup2\n        /* \"#utility.yul\":9810:9840   */\n      gt\n        /* \"#utility.yul\":9807:9924   */\n      iszero\n      tag_236\n      jumpi\n        /* \"#utility.yul\":9843:9922   */\n      tag_237\n      tag_97\n      jump\t// in\n    tag_237:\n        /* \"#utility.yul\":9807:9924   */\n    tag_236:\n        /* \"#utility.yul\":9948:10011   */\n      tag_238\n        /* \"#utility.yul\":10003:10010   */\n      dup5\n        /* \"#utility.yul\":9994:10000   */\n      dup3\n        /* \"#utility.yul\":9983:9992   */\n      dup6\n        /* \"#utility.yul\":9979:10001   */\n      add\n        /* \"#utility.yul\":9948:10011   */\n      tag_130\n      jump\t// in\n    tag_238:\n        /* \"#utility.yul\":9938:10011   */\n      swap2\n      pop\n        /* \"#utility.yul\":9734:10021   */\n      pop\n        /* \"#utility.yul\":9519:10028   */\n      swap3\n      swap2\n      pop\n      pop\n      jump\t// out\n        /* \"#utility.yul\":10034:10198   */\n    tag_131:\n        /* \"#utility.yul\":10174:10190   */\n      0x496e76616c6964206f7074696f6e000000000000000000000000000000000000\n        /* \"#utility.yul\":10170:10171   */\n      0x00\n        /* \"#utility.yul\":10162:10168   */\n      dup3\n        /* \"#utility.yul\":10158:10172   */\n      add\n        /* \"#utility.yul\":10151:10191   */\n      mstore\n        /* \"#utility.yul\":10034:10198   */\n      pop\n      jump\t// out\n        /* \"#utility.yul\":10204:10570   */\n    tag_132:\n        /* \"#utility.yul\":10346:10349   */\n      0x00\n        /* \"#utility.yul\":10367:10434   */\n      tag_241\n        /* \"#utility.yul\":10431:10433   */\n      0x0e\n        /* \"#utility.yul\":10426:10429   */\n      dup4\n        /* \"#utility.yul\":10367:10434   */\n      tag_109\n      jump\t// in\n    tag_241:\n        /* \"#utility.yul\":10360:10434   */\n      swap2\n      pop\n        /* \"#utility.yul\":10443:10536   */\n      tag_242\n        /* \"#utility.yul\":10532:10535   */\n      dup3\n        /* \"#utility.yul\":10443:10536   */\n      tag_131\n      jump\t// in\n    tag_242:\n        /* \"#utility.yul\":10561:10563   */\n      0x20\n        /* \"#utility.yul\":10556:10559   */\n      dup3\n        /* \"#utility.yul\":10552:10564   */\n      add\n        /* \"#utility.yul\":10545:10564   */\n      swap1\n      pop\n        /* \"#utility.yul\":10204:10570   */\n      swap2\n      swap1\n      pop\n      jump\t// out\n        /* \"#utility.yul\":10576:10995   */\n    tag_38:\n        /* \"#utility.yul\":10742:10746   */\n      0x00\n        /* \"#utility.yul\":10780:10782   */\n      0x20\n        /* \"#utility.yul\":10769:10778   */\n      dup3\n        /* \"#utility.yul\":10765:10783   */\n      add\n        /* \"#utility.yul\":10757:10783   */\n      swap1\n      pop\n        /* \"#utility.yul\":10829:10838   */\n      dup2\n        /* \"#utility.yul\":10823:10827   */\n      dup2\n        /* \"#utility.yul\":10819:10839   */\n      sub\n        /* \"#utility.yul\":10815:10816   */\n      0x00\n        /* \"#utility.yul\":10804:10813   */\n      dup4\n        /* \"#utility.yul\":10800:10817   */\n      add\n        /* \"#utility.yul\":10793:10840   */\n      mstore\n        /* \"#utility.yul\":10857:10988   */\n      tag_244\n        /* \"#utility.yul\":10983:10987   */\n      dup2\n        /* \"#utility.yul\":10857:10988   */\n      tag_132\n      jump\t// in\n    tag_244:\n        /* \"#utility.yul\":10849:10988   */\n      swap1\n      pop\n        /* \"#utility.yul\":10576:10995   */\n      swap2\n      swap1\n      pop\n      jump\t// out\n        /* \"#utility.yul\":11001:11164   */\n    tag_133:\n        /* \"#utility.yul\":11141:11156   */\n      0x416c726561647920766f74656400000000000000000000000000000000000000\n        /* \"#utility.yul\":11137:11138   */\n      0x00\n        /* \"#utility.yul\":11129:11135   */\n      dup3\n        /* \"#utility.yul\":11125:11139   */\n      add\n        /* \"#utility.yul\":11118:11157   */\n      mstore\n        /* \"#utility.yul\":11001:11164   */\n      pop\n      jump\t// out\n        /* \"#utility.yul\":11170:11536   */\n    tag_134:\n        /* \"#utility.yul\":11312:11315   */\n      0x00\n        /* \"#utility.yul\":11333:11400   */\n      tag_247\n        /* \"#utility.yul\":11397:11399   */\n      0x0d\n        /* \"#utility.yul\":11392:11395   */\n      dup4\n        /* \"#utility.yul\":11333:11400   */\n      tag_109\n      jump\t// in\n    tag_247:\n        /* \"#utility.yul\":11326:11400   */\n      swap2\n      pop\n        /* \"#utility.yul\":11409:11502   */\n      tag_248\n        /* \"#utility.yul\":11498:11501   */\n      dup3\n        /* \"#utility.yul\":11409:11502   */\n      tag_133\n      jump\t// in\n    tag_248:\n        /* \"#utility.yul\":11527:11529   */\n      0x20\n        /* \"#utility.yul\":11522:11525   */\n      dup3\n        /* \"#utility.yul\":11518:11530   */\n      add\n        /* \"#utility.yul\":11511:11530   */\n      swap1\n      pop\n        /* \"#utility.yul\":11170:11536   */\n      swap2\n      swap1\n      pop\n      jump\t// out\n        /* \"#utility.yul\":11542:11961   */\n    tag_41:\n        /* \"#utility.yul\":11708:11712   */\n      0x00\n        /* \"#utility.yul\":11746:11748   */\n      0x20\n        /* \"#utility.yul\":11735:11744   */\n      dup3\n        /* \"#utility.yul\":11731:11749   */\n      add\n        /* \"#utility.yul\":11723:11749   */\n      swap1\n      pop\n        /* \"#utility.yul\":11795:11804   */\n      dup2\n        /* \"#utility.yul\":11789:11793   */\n      dup2\n        /* \"#utility.yul\":11785:11805   */\n      sub\n        /* \"#utility.yul\":11781:11782   */\n      0x00\n        /* \"#utility.yul\":11770:11779   */\n      dup4\n        /* \"#utility.yul\":11766:11783   */\n      add\n        /* \"#utility.yul\":11759:11806   */\n      mstore\n        /* \"#utility.yul\":11823:11954   */\n      tag_250\n        /* \"#utility.yul\":11949:11953   */\n      dup2\n        /* \"#utility.yul\":11823:11954   */\n      tag_134\n      jump\t// in\n    tag_250:\n        /* \"#utility.yul\":11815:11954   */\n      swap1\n      pop\n        /* \"#utility.yul\":11542:11961   */\n      swap2\n      swap1\n      pop\n      jump\t// out\n        /* \"#utility.yul\":11967:12147   */\n    tag_135:\n        /* \"#utility.yul\":12015:12092   */\n      0x4e487b7100000000000000000000000000000000000000000000000000000000\n        /* \"#utility.yul\":12012:12013   */\n      0x00\n        /* \"#utility.yul\":12005:12093   */\n      mstore\n        /* \"#utility.yul\":12112:12116   */\n      0x22\n        /* \"#utility.yul\":12109:12110   */\n      0x04\n        /* \"#utility.yul\":12102:12117   */\n      mstore\n        /* \"#utility.yul\":12136:12140   */\n      0x24\n        /* \"#utility.yul\":12133:12134   */\n      0x00\n        /* \"#utility.yul\":12126:12141   */\n      revert\n        /* \"#utility.yul\":12153:12473   */\n    tag_50:\n        /* \"#utility.yul\":12197:12203   */\n      0x00\n        /* \"#utility.yul\":12234:12235   */\n      0x02\n        /* \"#utility.yul\":12228:12232   */\n      dup3\n        /* \"#utility.yul\":12224:12236   */\n      div\n        /* \"#utility.yul\":12214:12236   */\n      swap1\n      pop\n        /* \"#utility.yul\":12281:12282   */\n      0x01\n        /* \"#utility.yul\":12275:12279   */\n      dup3\n        /* \"#utility.yul\":12271:12283   */\n      and\n        /* \"#utility.yul\":12302:12320   */\n      dup1\n        /* \"#utility.yul\":12292:12373   */\n      tag_253\n      jumpi\n        /* \"#utility.yul\":12358:12362   */\n      0x7f\n        /* \"#utility.yul\":12350:12356   */\n      dup3\n        /* \"#utility.yul\":12346:12363   */\n      and\n        /* \"#utility.yul\":12336:12363   */\n      swap2\n      pop\n        /* \"#utility.yul\":12292:12373   */\n    tag_253:\n        /* \"#utility.yul\":12420:12422   */\n      0x20\n        /* \"#utility.yul\":12412:12418   */\n      dup3\n        /* \"#utility.yul\":12409:12423   */\n      lt\n        /* \"#utility.yul\":12389:12407   */\n      dup2\n        /* \"#utility.yul\":12386:12424   */\n      sub\n        /* \"#utility.yul\":12383:12467   */\n      tag_254\n      jumpi\n        /* \"#utility.yul\":12439:12457   */\n      tag_255\n      tag_135\n      jump\t// in\n    tag_255:\n        /* \"#utility.yul\":12383:12467   */\n    tag_254:\n        /* \"#utility.yul\":12204:12473   */\n      pop\n        /* \"#utility.yul\":12153:12473   */\n      swap2\n      swap1\n      pop\n      jump\t// out\n        /* \"#utility.yul\":12479:12659   */\n    tag_74:\n        /* \"#utility.yul\":12527:12604   */\n      0x4e487b7100000000000000000000000000000000000000000000000000000000\n        /* \"#utility.yul\":12524:12525   */\n      0x00\n        /* \"#utility.yul\":12517:12605   */\n      mstore\n        /* \"#utility.yul\":12624:12628   */\n      0x32\n        /* \"#utility.yul\":12621:12622   */\n      0x04\n        /* \"#utility.yul\":12614:12629   */\n      mstore\n        /* \"#utility.yul\":12648:12652   */\n      0x24\n        /* \"#utility.yul\":12645:12646   */\n      0x00\n        /* \"#utility.yul\":12638:12653   */\n      revert\n        /* \"#utility.yul\":12665:12845   */\n    tag_136:\n        /* \"#utility.yul\":12713:12790   */\n      0x4e487b7100000000000000000000000000000000000000000000000000000000\n        /* \"#utility.yul\":12710:12711   */\n      0x00\n        /* \"#utility.yul\":12703:12791   */\n      mstore\n        /* \"#utility.yul\":12810:12814   */\n      0x11\n        /* \"#utility.yul\":12807:12808   */\n      0x04\n        /* \"#utility.yul\":12800:12815   */\n      mstore\n        /* \"#utility.yul\":12834:12838   */\n      0x24\n        /* \"#utility.yul\":12831:12832   */\n      0x00\n        /* \"#utility.yul\":12824:12839   */\n      revert\n        /* \"#utility.yul\":12851:13042   */\n    tag_90:\n        /* \"#utility.yul\":12891:12894   */\n      0x00\n        /* \"#utility.yul\":12910:12930   */\n      tag_259\n        /* \"#utility.yul\":12928:12929   */\n      dup3\n        /* \"#utility.yul\":12910:12930   */\n      tag_98\n      jump\t// in\n    tag_259:\n        /* \"#utility.yul\":12905:12930   */\n      swap2\n      pop\n        /* \"#utility.yul\":12944:12964   */\n      tag_260\n        /* \"#utility.yul\":12962:12963   */\n      dup4\n        /* \"#utility.yul\":12944:12964   */\n      tag_98\n      jump\t// in\n    tag_260:\n        /* \"#utility.yul\":12939:12964   */\n      swap3\n      pop\n        /* \"#utility.yul\":12987:12988   */\n      dup3\n        /* \"#utility.yul\":12984:12985   */\n      dup3\n        /* \"#utility.yul\":12980:12989   */\n      add\n        /* \"#utility.yul\":12973:12989   */\n      swap1\n      pop\n        /* \"#utility.yul\":13008:13011   */\n      dup1\n        /* \"#utility.yul\":13005:13006   */\n      dup3\n        /* \"#utility.yul\":13002:13012   */\n      gt\n        /* \"#utility.yul\":12999:13035   */\n      iszero\n      tag_261\n      jumpi\n        /* \"#utility.yul\":13015:13033   */\n      tag_262\n      tag_136\n      jump\t// in\n    tag_262:\n        /* \"#utility.yul\":12999:13035   */\n    tag_261:\n        /* \"#utility.yul\":12851:13042   */\n      swap3\n      swap2\n      pop\n      pop\n      jump\t// out\n\n    auxdata: 0xa2646970667358221220d6793bd48cf0025b51e7a537bbaaa32073bd4ff348f5a470b9a68888e91d27ff64736f6c634300081e0033\n}\n",
				"bytecode": {
					"linkReferences": {},
					"object": "608060405234801561000f575f5ffd5b506040516113e23803806113e2833981810160405281019061003191906103f9565b80600190805190602001906100479291906100ad565b50805167ffffffffffffffff811115610063576100626101ef565b5b6040519080825280602002602001820160405280156100915781602001602082028036833780820191505090505b505f90805190602001906100a6929190610104565b505061071f565b828054828255905f5260205f209081019282156100f3579160200282015b828111156100f25782518290816100e29190610650565b50916020019190600101906100cb565b5b509050610100919061014f565b5090565b828054828255905f5260205f2090810192821561013e579160200282015b8281111561013d578251825591602001919060010190610122565b5b50905061014b9190610172565b5090565b5b8082111561016e575f8181610165919061018d565b50600101610150565b5090565b5b80821115610189575f815f905550600101610173565b5090565b50805461019990610477565b5f825580601f106101aa57506101c7565b601f0160209004905f5260205f20908101906101c69190610172565b5b50565b5f604051905090565b5f5ffd5b5f5ffd5b5f5ffd5b5f601f19601f8301169050919050565b7f4e487b71000000000000000000000000000000000000000000000000000000005f52604160045260245ffd5b610225826101df565b810181811067ffffffffffffffff82111715610244576102436101ef565b5b80604052505050565b5f6102566101ca565b9050610262828261021c565b919050565b5f67ffffffffffffffff821115610281576102806101ef565b5b602082029050602081019050919050565b5f5ffd5b5f5ffd5b5f67ffffffffffffffff8211156102b4576102b36101ef565b5b6102bd826101df565b9050602081019050919050565b8281835e5f83830152505050565b5f6102ea6102e58461029a565b61024d565b90508281526020810184848401111561030657610305610296565b5b6103118482856102ca565b509392505050565b5f82601f83011261032d5761032c6101db565b5b815161033d8482602086016102d8565b91505092915050565b5f61035861035384610267565b61024d565b9050808382526020820190506020840283018581111561037b5761037a610292565b5b835b818110156103c257805167ffffffffffffffff8111156103a05761039f6101db565b5b8086016103ad8982610319565b8552602085019450505060208101905061037d565b5050509392505050565b5f82601f8301126103e0576103df6101db565b5b81516103f0848260208601610346565b91505092915050565b5f6020828403121561040e5761040d6101d3565b5b5f82015167ffffffffffffffff81111561042b5761042a6101d7565b5b610437848285016103cc565b91505092915050565b5f81519050919050565b7f4e487b71000000000000000000000000000000000000000000000000000000005f52602260045260245ffd5b5f600282049050600182168061048e57607f821691505b6020821081036104a1576104a061044a565b5b50919050565b5f819050815f5260205f209050919050565b5f6020601f8301049050919050565b5f82821b905092915050565b5f600883026105037fffffffffffffffffffffffffffffffffffffffffffffffffffffffffffffffff826104c8565b61050d86836104c8565b95508019841693508086168417925050509392505050565b5f819050919050565b5f819050919050565b5f61055161054c61054784610525565b61052e565b610525565b9050919050565b5f819050919050565b61056a83610537565b61057e61057682610558565b8484546104d4565b825550505050565b5f5f905090565b610595610586565b6105a0818484610561565b505050565b5b818110156105c3576105b85f8261058d565b6001810190506105a6565b5050565b601f821115610608576105d9816104a7565b6105e2846104b9565b810160208510156105f1578190505b6106056105fd856104b9565b8301826105a5565b50505b505050565b5f82821c905092915050565b5f6106285f198460080261060d565b1980831691505092915050565b5f6106408383610619565b9150826002028217905092915050565b61065982610440565b67ffffffffffffffff811115610672576106716101ef565b5b61067c8254610477565b6106878282856105c7565b5f60209050601f8311600181146106b8575f84156106a6578287015190505b6106b08582610635565b865550610717565b601f1984166106c6866104a7565b5f5b828110156106ed578489015182556001820191506020850194506020810190506106c8565b8683101561070a5784890151610706601f891682610619565b8355505b6001600288020188555050505b505050505050565b610cb68061072c5f395ff3fe608060405234801561000f575f5ffd5b5060043610610060575f3560e01c80630121b93f146100645780630dc9601514610080578063409e22051461009e5780635df81330146100ce578063cc2ee196146100fe578063fc36e15b1461011c575b5f5ffd5b61007e60048036038101906100799190610676565b610138565b005b610088610215565b6040516100959190610758565b60405180910390f35b6100b860048036038101906100b39190610676565b61026a565b6040516100c591906107e8565b60405180910390f35b6100e860048036038101906100e39190610676565b610310565b6040516100f59190610817565b60405180910390f35b61010661032f565b6040516101139190610933565b60405180910390f35b61013660048036038101906101319190610a7f565b610403565b005b600180549050811061017f576040517f08c379a000000000000000000000000000000000000000000000000000000000815260040161017690610b10565b60405180910390fd5b60025f3373ffffffffffffffffffffffffffffffffffffffff1673ffffffffffffffffffffffffffffffffffffffff1681526020019081526020015f205f9054906101000a900460ff1615610209576040517f08c379a000000000000000000000000000000000000000000000000000000000815260040161020090610b78565b60405180910390fd5b61021281610579565b50565b60605f80548060200260200160405190810160405280929190818152602001828054801561026057602002820191905f5260205f20905b81548152602001906001019080831161024c575b5050505050905090565b60018181548110610279575f80fd5b905f5260205f20015f91509050805461029190610bc3565b80601f01602080910402602001604051908101604052809291908181526020018280546102bd90610bc3565b80156103085780601f106102df57610100808354040283529160200191610308565b820191905f5260205f20905b8154815290600101906020018083116102eb57829003601f168201915b505050505081565b5f818154811061031e575f80fd5b905f5260205f20015f915090505481565b60606001805480602002602001604051908101604052809291908181526020015f905b828210156103fa578382905f5260205f2001805461036f90610bc3565b80601f016020809104026020016040519081016040528092919081815260200182805461039b90610bc3565b80156103e65780601f106103bd576101008083540402835291602001916103e6565b820191905f5260205f20905b8154815290600101906020018083116103c957829003601f168201915b505050505081526020019060010190610352565b50505050905090565b60025f3373ffffffffffffffffffffffffffffffffffffffff1673ffffffffffffffffffffffffffffffffffffffff1681526020019081526020015f205f9054906101000a900460ff161561048d576040517f08c379a000000000000000000000000000000000000000000000000000000000815260040161048490610b78565b60405180910390fd5b5f5f90505b600180549050811015610572575f600182815481106104b4576104b3610bf3565b5b905f5260205f200180546104c790610bc3565b80601f01602080910402602001604051908101604052809291908181526020018280546104f390610bc3565b801561053e5780601f106105155761010080835404028352916020019161053e565b820191905f5260205f20905b81548152906001019060200180831161052157829003601f168201915b5050505050905061054f8382610618565b156105645761055d82610579565b5050610576565b508080600101915050610492565b5f5ffd5b50565b600160025f3373ffffffffffffffffffffffffffffffffffffffff1673ffffffffffffffffffffffffffffffffffffffff1681526020019081526020015f205f6101000a81548160ff02191690831515021790555060015f82815481106105e3576105e2610bf3565b5b905f5260205f2001546105f69190610c4d565b5f828154811061060957610608610bf3565b5b905f5260205f20018190555050565b5f8180519060200120838051906020012014905092915050565b5f604051905090565b5f5ffd5b5f5ffd5b5f819050919050565b61065581610643565b811461065f575f5ffd5b50565b5f813590506106708161064c565b92915050565b5f6020828403121561068b5761068a61063b565b5b5f61069884828501610662565b91505092915050565b5f81519050919050565b5f82825260208201905092915050565b5f819050602082019050919050565b6106d381610643565b82525050565b5f6106e483836106ca565b60208301905092915050565b5f602082019050919050565b5f610706826106a1565b61071081856106ab565b935061071b836106bb565b805f5b8381101561074b57815161073288826106d9565b975061073d836106f0565b92505060018101905061071e565b5085935050505092915050565b5f6020820190508181035f83015261077081846106fc565b905092915050565b5f81519050919050565b5f82825260208201905092915050565b8281835e5f83830152505050565b5f601f19601f8301169050919050565b5f6107ba82610778565b6107c48185610782565b93506107d4818560208601610792565b6107dd816107a0565b840191505092915050565b5f6020820190508181035f83015261080081846107b0565b905092915050565b61081181610643565b82525050565b5f60208201905061082a5f830184610808565b92915050565b5f81519050919050565b5f82825260208201905092915050565b5f819050602082019050919050565b5f82825260208201905092915050565b5f61087382610778565b61087d8185610859565b935061088d818560208601610792565b610896816107a0565b840191505092915050565b5f6108ac8383610869565b905092915050565b5f602082019050919050565b5f6108ca82610830565b6108d4818561083a565b9350836020820285016108e68561084a565b805f5b85811015610921578484038952815161090285826108a1565b945061090d836108b4565b925060208a019950506001810190506108e9565b50829750879550505050505092915050565b5f6020820190508181035f83015261094b81846108c0565b905092915050565b5f5ffd5b5f5ffd5b7f4e487b71000000000000000000000000000000000000000000000000000000005f52604160045260245ffd5b610991826107a0565b810181811067ffffffffffffffff821117156109b0576109af61095b565b5b80604052505050565b5f6109c2610632565b90506109ce8282610988565b919050565b5f67ffffffffffffffff8211156109ed576109ec61095b565b5b6109f6826107a0565b9050602081019050919050565b828183375f83830152505050565b5f610a23610a1e846109d3565b6109b9565b905082815260208101848484011115610a3f57610a3e610957565b5b610a4a848285610a03565b509392505050565b5f82601f830112610a6657610a65610953565b5b8135610a76848260208601610a11565b91505092915050565b5f60208284031215610a9457610a9361063b565b5b5f82013567ffffffffffffffff811115610ab157610ab061063f565b5b610abd84828501610a52565b91505092915050565b7f496e76616c6964206f7074696f6e0000000000000000000000000000000000005f82015250565b5f610afa600e83610782565b9150610b0582610ac6565b602082019050919050565b5f6020820190508181035f830152610b2781610aee565b9050919050565b7f416c726561647920766f746564000000000000000000000000000000000000005f82015250565b5f610b62600d83610782565b9150610b6d82610b2e565b602082019050919050565b5f6020820190508181035f830152610b8f81610b56565b9050919050565b7f4e487b71000000000000000000000000000000000000000000000000000000005f52602260045260245ffd5b5f6002820490506001821680610bda57607f821691505b602082108103610bed57610bec610b96565b5b50919050565b7f4e487b71000000000000000000000000000000000000000000000000000000005f52603260045260245ffd5b7f4e487b71000000000000000000000000000000000000000000000000000000005f52601160045260245ffd5b5f610c5782610643565b9150610c6283610643565b9250828201905080821115610c7a57610c79610c20565b5b9291505056fea2646970667358221220d6793bd48cf0025b51e7a537bbaaa32073bd4ff348f5a470b9a68888e91d27ff64736f6c634300081e0033",
					"opcodes": "PUSH1 0x80 PUSH1 0x40 MSTORE CALLVALUE DUP1 ISZERO PUSH2 0xF JUMPI PUSH0 PUSH0 REVERT JUMPDEST POP PUSH1 0x40 MLOAD PUSH2 0x13E2 CODESIZE SUB DUP1 PUSH2 0x13E2 DUP4 CODECOPY DUP2 DUP2 ADD PUSH1 0x40 MSTORE DUP2 ADD SWAP1 PUSH2 0x31 SWAP2 SWAP1 PUSH2 0x3F9 JUMP JUMPDEST DUP1 PUSH1 0x1 SWAP1 DUP1 MLOAD SWAP1 PUSH1 0x20 ADD SWAP1 PUSH2 0x47 SWAP3 SWAP2 SWAP1 PUSH2 0xAD JUMP JUMPDEST POP DUP1 MLOAD PUSH8 0xFFFFFFFFFFFFFFFF DUP2 GT ISZERO PUSH2 0x63 JUMPI PUSH2 0x62 PUSH2 0x1EF JUMP JUMPDEST JUMPDEST PUSH1 0x40 MLOAD SWAP1 DUP1 DUP3 MSTORE DUP1 PUSH1 0x20 MUL PUSH1 0x20 ADD DUP3 ADD PUSH1 0x40 MSTORE DUP1 ISZERO PUSH2 0x91 JUMPI DUP2 PUSH1 0x20 ADD PUSH1 0x20 DUP3 MUL DUP1 CALLDATASIZE DUP4 CALLDATACOPY DUP1 DUP3 ADD SWAP2 POP POP SWAP1 POP JUMPDEST POP PUSH0 SWAP1 DUP1 MLOAD SWAP1 PUSH1 0x20 ADD SWAP1 PUSH2 0xA6 SWAP3 SWAP2 SWAP1 PUSH2 0x104 JUMP JUMPDEST POP POP PUSH2 0x71F JUMP JUMPDEST DUP3 DUP1 SLOAD DUP3 DUP3 SSTORE SWAP1 PUSH0 MSTORE PUSH1 0x20 PUSH0 KECCAK256 SWAP1 DUP2 ADD SWAP3 DUP3 ISZERO PUSH2 0xF3 JUMPI SWAP2 PUSH1 0x20 MUL DUP3 ADD JUMPDEST DUP3 DUP2 GT ISZERO PUSH2 0xF2 JUMPI DUP3 MLOAD DUP3 SWAP1 DUP2 PUSH2 0xE2 SWAP2 SWAP1 PUSH2 0x650 JUMP JUMPDEST POP SWAP2 PUSH1 0x20 ADD SWAP2 SWAP1 PUSH1 0x1 ADD SWAP1 PUSH2 0xCB JUMP JUMPDEST JUMPDEST POP SWAP1 POP PUSH2 0x100 SWAP2 SWAP1 PUSH2 0x14F JUMP JUMPDEST POP SWAP1 JUMP JUMPDEST DUP3 DUP1 SLOAD DUP3 DUP3 SSTORE SWAP1 PUSH0 MSTORE PUSH1 0x20 PUSH0 KECCAK256 SWAP1 DUP2 ADD SWAP3 DUP3 ISZERO PUSH2 0x13E JUMPI SWAP2 PUSH1 0x20 MUL DUP3 ADD JUMPDEST DUP3 DUP2 GT ISZERO PUSH2 0x13D JUMPI DUP3 MLOAD DUP3 SSTORE SWAP2 PUSH1 0x20 ADD SWAP2 SWAP1 PUSH1 0x1 ADD SWAP1 PUSH2 0x122 JUMP JUMPDEST JUMPDEST POP SWAP1 POP PUSH2 0x14B SWAP2 SWAP1 PUSH2 0x172 JUMP JUMPDEST POP SWAP1 JUMP JUMPDEST JUMPDEST DUP1 DUP3 GT ISZERO PUSH2 0x16E JUMPI PUSH0 DUP2 DUP2 PUSH2 0x165 SWAP2 SWAP1 PUSH2 0x18D JUMP JUMPDEST POP PUSH1 0x1 ADD PUSH2 0x150 JUMP JUMPDEST POP SWAP1 JUMP JUMPDEST JUMPDEST DUP1 DUP3 GT ISZERO PUSH2 0x189 JUMPI PUSH0 DUP2 PUSH0 SWAP1 SSTORE POP PUSH1 0x1 ADD PUSH2 0x173 JUMP JUMPDEST POP SWAP1 JUMP JUMPDEST POP DUP1 SLOAD PUSH2 0x199 SWAP1 PUSH2 0x477 JUMP JUMPDEST PUSH0 DUP3 SSTORE DUP1 PUSH1 0x1F LT PUSH2 0x1AA JUMPI POP PUSH2 0x1C7 JUMP JUMPDEST PUSH1 0x1F ADD PUSH1 0x20 SWAP1 DIV SWAP1 PUSH0 MSTORE PUSH1 0x20 PUSH0 KECCAK256 SWAP1 DUP2 ADD SWAP1 PUSH2 0x1C6 SWAP2 SWAP1 PUSH2 0x172 JUMP JUMPDEST JUMPDEST POP JUMP JUMPDEST PUSH0 PUSH1 0x40 MLOAD SWAP1 POP SWAP1 JUMP JUMPDEST PUSH0 PUSH0 REVERT JUMPDEST PUSH0 PUSH0 REVERT JUMPDEST PUSH0 PUSH0 REVERT JUMPDEST PUSH0 PUSH1 0x1F NOT PUSH1 0x1F DUP4 ADD AND SWAP1 POP SWAP2 SWAP1 POP JUMP JUMPDEST PUSH32 0x4E487B7100000000000000000000000000000000000000000000000000000000 PUSH0 MSTORE PUSH1 0x41 PUSH1 0x4 MSTORE PUSH1 0x24 PUSH0 REVERT JUMPDEST PUSH2 0x225 DUP3 PUSH2 0x1DF JUMP JUMPDEST DUP2 ADD DUP2 DUP2 LT PUSH8 0xFFFFFFFFFFFFFFFF DUP3 GT OR ISZERO PUSH2 0x244 JUMPI PUSH2 0x243 PUSH2 0x1EF JUMP JUMPDEST JUMPDEST DUP1 PUSH1 0x40 MSTORE POP POP POP JUMP JUMPDEST PUSH0 PUSH2 0x256 PUSH2 0x1CA JUMP JUMPDEST SWAP1 POP PUSH2 0x262 DUP3 DUP3 PUSH2 0x21C JUMP JUMPDEST SWAP2 SWAP1 POP JUMP JUMPDEST PUSH0 PUSH8 0xFFFFFFFFFFFFFFFF DUP3 GT ISZERO PUSH2 0x281 JUMPI PUSH2 0x280 PUSH2 0x1EF JUMP JUMPDEST JUMPDEST PUSH1 0x20 DUP3 MUL SWAP1 POP PUSH1 0x20 DUP2 ADD SWAP1 POP SWAP2 SWAP1 POP JUMP JUMPDEST PUSH0 PUSH0 REVERT JUMPDEST PUSH0 PUSH0 REVERT JUMPDEST PUSH0 PUSH8 0xFFFFFFFFFFFFFFFF DUP3 GT ISZERO PUSH2 0x2B4 JUMPI PUSH2 0x2B3 PUSH2 0x1EF JUMP JUMPDEST JUMPDEST PUSH2 0x2BD DUP3 PUSH2 0x1DF JUMP JUMPDEST SWAP1 POP PUSH1 0x20 DUP2 ADD SWAP1 POP SWAP2 SWAP1 POP JUMP JUMPDEST DUP3 DUP2 DUP4 MCOPY PUSH0 DUP4 DUP4 ADD MSTORE POP POP POP JUMP JUMPDEST PUSH0 PUSH2 0x2EA PUSH2 0x2E5 DUP5 PUSH2 0x29A JUMP JUMPDEST PUSH2 0x24D JUMP JUMPDEST SWAP1 POP DUP3 DUP2 MSTORE PUSH1 0x20 DUP2 ADD DUP5 DUP5 DUP5 ADD GT ISZERO PUSH2 0x306 JUMPI PUSH2 0x305 PUSH2 0x296 JUMP JUMPDEST JUMPDEST PUSH2 0x311 DUP5 DUP3 DUP6 PUSH2 0x2CA JUMP JUMPDEST POP SWAP4 SWAP3 POP POP POP JUMP JUMPDEST PUSH0 DUP3 PUSH1 0x1F DUP4 ADD SLT PUSH2 0x32D JUMPI PUSH2 0x32C PUSH2 0x1DB JUMP JUMPDEST JUMPDEST DUP2 MLOAD PUSH2 0x33D DUP5 DUP3 PUSH1 0x20 DUP7 ADD PUSH2 0x2D8 JUMP JUMPDEST SWAP2 POP POP SWAP3 SWAP2 POP POP JUMP JUMPDEST PUSH0 PUSH2 0x358 PUSH2 0x353 DUP5 PUSH2 0x267 JUMP JUMPDEST PUSH2 0x24D JUMP JUMPDEST SWAP1 POP DUP1 DUP4 DUP3 MSTORE PUSH1 0x20 DUP3 ADD SWAP1 POP PUSH1 0x20 DUP5 MUL DUP4 ADD DUP6 DUP2 GT ISZERO PUSH2 0x37B JUMPI PUSH2 0x37A PUSH2 0x292 JUMP JUMPDEST JUMPDEST DUP4 JUMPDEST DUP2 DUP2 LT ISZERO PUSH2 0x3C2 JUMPI DUP1 MLOAD PUSH8 0xFFFFFFFFFFFFFFFF DUP2 GT ISZERO PUSH2 0x3A0 JUMPI PUSH2 0x39F PUSH2 0x1DB JUMP JUMPDEST JUMPDEST DUP1 DUP7 ADD PUSH2 0x3AD DUP10 DUP3 PUSH2 0x319 JUMP JUMPDEST DUP6 MSTORE PUSH1 0x20 DUP6 ADD SWAP5 POP POP POP PUSH1 0x20 DUP2 ADD SWAP1 POP PUSH2 0x37D JUMP JUMPDEST POP POP POP SWAP4 SWAP3 POP POP POP JUMP JUMPDEST PUSH0 DUP3 PUSH1 0x1F DUP4 ADD SLT PUSH2 0x3E0 JUMPI PUSH2 0x3DF PUSH2 0x1DB JUMP JUMPDEST JUMPDEST DUP2 MLOAD PUSH2 0x3F0 DUP5 DUP3 PUSH1 0x20 DUP7 ADD PUSH2 0x346 JUMP JUMPDEST SWAP2 POP POP SWAP3 SWAP2 POP POP JUMP JUMPDEST PUSH0 PUSH1 0x20 DUP3 DUP5 SUB SLT ISZERO PUSH2 0x40E JUMPI PUSH2 0x40D PUSH2 0x1D3 JUMP JUMPDEST JUMPDEST PUSH0 DUP3 ADD MLOAD PUSH8 0xFFFFFFFFFFFFFFFF DUP2 GT ISZERO PUSH2 0x42B JUMPI PUSH2 0x42A PUSH2 0x1D7 JUMP JUMPDEST JUMPDEST PUSH2 0x437 DUP5 DUP3 DUP6 ADD PUSH2 0x3CC JUMP JUMPDEST SWAP2 POP POP SWAP3 SWAP2 POP POP JUMP JUMPDEST PUSH0 DUP2 MLOAD SWAP1 POP SWAP2 SWAP1 POP JUMP JUMPDEST PUSH32 0x4E487B7100000000000000000000000000000000000000000000000000000000 PUSH0 MSTORE PUSH1 0x22 PUSH1 0x4 MSTORE PUSH1 0x24 PUSH0 REVERT JUMPDEST PUSH0 PUSH1 0x2 DUP3 DIV SWAP1 POP PUSH1 0x1 DUP3 AND DUP1 PUSH2 0x48E JUMPI PUSH1 0x7F DUP3 AND SWAP2 POP JUMPDEST PUSH1 0x20 DUP3 LT DUP2 SUB PUSH2 0x4A1 JUMPI PUSH2 0x4A0 PUSH2 0x44A JUMP JUMPDEST JUMPDEST POP SWAP2 SWAP1 POP JUMP JUMPDEST PUSH0 DUP2 SWAP1 POP DUP2 PUSH0 MSTORE PUSH1 0x20 PUSH0 KECCAK256 SWAP1 POP SWAP2 SWAP1 POP JUMP JUMPDEST PUSH0 PUSH1 0x20 PUSH1 0x1F DUP4 ADD DIV SWAP1 POP SWAP2 SWAP1 POP JUMP JUMPDEST PUSH0 DUP3 DUP3 SHL SWAP1 POP SWAP3 SWAP2 POP POP JUMP JUMPDEST PUSH0 PUSH1 0x8 DUP4 MUL PUSH2 0x503 PUSH32 0xFFFFFFFFFFFFFFFFFFFFFFFFFFFFFFFFFFFFFFFFFFFFFFFFFFFFFFFFFFFFFFFF DUP3 PUSH2 0x4C8 JUMP JUMPDEST PUSH2 0x50D DUP7 DUP4 PUSH2 0x4C8 JUMP JUMPDEST SWAP6 POP DUP1 NOT DUP5 AND SWAP4 POP DUP1 DUP7 AND DUP5 OR SWAP3 POP POP POP SWAP4 SWAP3 POP POP POP JUMP JUMPDEST PUSH0 DUP2 SWAP1 POP SWAP2 SWAP1 POP JUMP JUMPDEST PUSH0 DUP2 SWAP1 POP SWAP2 SWAP1 POP JUMP JUMPDEST PUSH0 PUSH2 0x551 PUSH2 0x54C PUSH2 0x547 DUP5 PUSH2 0x525 JUMP JUMPDEST PUSH2 0x52E JUMP JUMPDEST PUSH2 0x525 JUMP JUMPDEST SWAP1 POP SWAP2 SWAP1 POP JUMP JUMPDEST PUSH0 DUP2 SWAP1 POP SWAP2 SWAP1 POP JUMP JUMPDEST PUSH2 0x56A DUP4 PUSH2 0x537 JUMP JUMPDEST PUSH2 0x57E PUSH2 0x576 DUP3 PUSH2 0x558 JUMP JUMPDEST DUP5 DUP5 SLOAD PUSH2 0x4D4 JUMP JUMPDEST DUP3 SSTORE POP POP POP POP JUMP JUMPDEST PUSH0 PUSH0 SWAP1 POP SWAP1 JUMP JUMPDEST PUSH2 0x595 PUSH2 0x586 JUMP JUMPDEST PUSH2 0x5A0 DUP2 DUP5 DUP5 PUSH2 0x561 JUMP JUMPDEST POP POP POP JUMP JUMPDEST JUMPDEST DUP2 DUP2 LT ISZERO PUSH2 0x5C3 JUMPI PUSH2 0x5B8 PUSH0 DUP3 PUSH2 0x58D JUMP JUMPDEST PUSH1 0x1 DUP2 ADD SWAP1 POP PUSH2 0x5A6 JUMP JUMPDEST POP POP JUMP JUMPDEST PUSH1 0x1F DUP3 GT ISZERO PUSH2 0x608 JUMPI PUSH2 0x5D9 DUP2 PUSH2 0x4A7 JUMP JUMPDEST PUSH2 0x5E2 DUP5 PUSH2 0x4B9 JUMP JUMPDEST DUP2 ADD PUSH1 0x20 DUP6 LT ISZERO PUSH2 0x5F1 JUMPI DUP2 SWAP1 POP JUMPDEST PUSH2 0x605 PUSH2 0x5FD DUP6 PUSH2 0x4B9 JUMP JUMPDEST DUP4 ADD DUP3 PUSH2 0x5A5 JUMP JUMPDEST POP POP JUMPDEST POP POP POP JUMP JUMPDEST PUSH0 DUP3 DUP3 SHR SWAP1 POP SWAP3 SWAP2 POP POP JUMP JUMPDEST PUSH0 PUSH2 0x628 PUSH0 NOT DUP5 PUSH1 0x8 MUL PUSH2 0x60D JUMP JUMPDEST NOT DUP1 DUP4 AND SWAP2 POP POP SWAP3 SWAP2 POP POP JUMP JUMPDEST PUSH0 PUSH2 0x640 DUP4 DUP4 PUSH2 0x619 JUMP JUMPDEST SWAP2 POP DUP3 PUSH1 0x2 MUL DUP3 OR SWAP1 POP SWAP3 SWAP2 POP POP JUMP JUMPDEST PUSH2 0x659 DUP3 PUSH2 0x440 JUMP JUMPDEST PUSH8 0xFFFFFFFFFFFFFFFF DUP2 GT ISZERO PUSH2 0x672 JUMPI PUSH2 0x671 PUSH2 0x1EF JUMP JUMPDEST JUMPDEST PUSH2 0x67C DUP3 SLOAD PUSH2 0x477 JUMP JUMPDEST PUSH2 0x687 DUP3 DUP3 DUP6 PUSH2 0x5C7 JUMP JUMPDEST PUSH0 PUSH1 0x20 SWAP1 POP PUSH1 0x1F DUP4 GT PUSH1 0x1 DUP2 EQ PUSH2 0x6B8 JUMPI PUSH0 DUP5 ISZERO PUSH2 0x6A6 JUMPI DUP3 DUP8 ADD MLOAD SWAP1 POP JUMPDEST PUSH2 0x6B0 DUP6 DUP3 PUSH2 0x635 JUMP JUMPDEST DUP7 SSTORE POP PUSH2 0x717 JUMP JUMPDEST PUSH1 0x1F NOT DUP5 AND PUSH2 0x6C6 DUP7 PUSH2 0x4A7 JUMP JUMPDEST PUSH0 JUMPDEST DUP3 DUP2 LT ISZERO PUSH2 0x6ED JUMPI DUP5 DUP10 ADD MLOAD DUP3 SSTORE PUSH1 0x1 DUP3 ADD SWAP2 POP PUSH1 0x20 DUP6 ADD SWAP5 POP PUSH1 0x20 DUP2 ADD SWAP1 POP PUSH2 0x6C8 JUMP JUMPDEST DUP7 DUP4 LT ISZERO PUSH2 0x70A JUMPI DUP5 DUP10 ADD MLOAD PUSH2 0x706 PUSH1 0x1F DUP10 AND DUP3 PUSH2 0x619 JUMP JUMPDEST DUP4 SSTORE POP JUMPDEST PUSH1 0x1 PUSH1 0x2 DUP9 MUL ADD DUP9 SSTORE POP POP POP JUMPDEST POP POP POP POP POP POP JUMP JUMPDEST PUSH2 0xCB6 DUP1 PUSH2 0x72C PUSH0 CODECOPY PUSH0 RETURN INVALID PUSH1 0x80 PUSH1 0x40 MSTORE CALLVALUE DUP1 ISZERO PUSH2 0xF JUMPI PUSH0 PUSH0 REVERT JUMPDEST POP PUSH1 0x4 CALLDATASIZE LT PUSH2 0x60 JUMPI PUSH0 CALLDATALOAD PUSH1 0xE0 SHR DUP1 PUSH4 0x121B93F EQ PUSH2 0x64 JUMPI DUP1 PUSH4 0xDC96015 EQ PUSH2 0x80 JUMPI DUP1 PUSH4 0x409E2205 EQ PUSH2 0x9E JUMPI DUP1 PUSH4 0x5DF81330 EQ PUSH2 0xCE JUMPI DUP1 PUSH4 0xCC2EE196 EQ PUSH2 0xFE JUMPI DUP1 PUSH4 0xFC36E15B EQ PUSH2 0x11C JUMPI JUMPDEST PUSH0 PUSH0 REVERT JUMPDEST PUSH2 0x7E PUSH1 0x4 DUP1 CALLDATASIZE SUB DUP2 ADD SWAP1 PUSH2 0x79 SWAP2 SWAP1 PUSH2 0x676 JUMP JUMPDEST PUSH2 0x138 JUMP JUMPDEST STOP JUMPDEST PUSH2 0x88 PUSH2 0x215 JUMP JUMPDEST PUSH1 0x40 MLOAD PUSH2 0x95 SWAP2 SWAP1 PUSH2 0x758 JUMP JUMPDEST PUSH1 0x40 MLOAD DUP1 SWAP2 SUB SWAP1 RETURN JUMPDEST PUSH2 0xB8 PUSH1 0x4 DUP1 CALLDATASIZE SUB DUP2 ADD SWAP1 PUSH2 0xB3 SWAP2 SWAP1 PUSH2 0x676 JUMP JUMPDEST PUSH2 0x26A JUMP JUMPDEST PUSH1 0x40 MLOAD PUSH2 0xC5 SWAP2 SWAP1 PUSH2 0x7E8 JUMP JUMPDEST PUSH1 0x40 MLOAD DUP1 SWAP2 SUB SWAP1 RETURN JUMPDEST PUSH2 0xE8 PUSH1 0x4 DUP1 CALLDATASIZE SUB DUP2 ADD SWAP1 PUSH2 0xE3 SWAP2 SWAP1 PUSH2 0x676 JUMP JUMPDEST PUSH2 0x310 JUMP JUMPDEST PUSH1 0x40 MLOAD PUSH2 0xF5 SWAP2 SWAP1 PUSH2 0x817 JUMP JUMPDEST PUSH1 0x40 MLOAD DUP1 SWAP2 SUB SWAP1 RETURN JUMPDEST PUSH2 0x106 PUSH2 0x32F JUMP JUMPDEST PUSH1 0x40 MLOAD PUSH2 0x113 SWAP2 SWAP1 PUSH2 0x933 JUMP JUMPDEST PUSH1 0x40 MLOAD DUP1 SWAP2 SUB SWAP1 RETURN JUMPDEST PUSH2 0x136 PUSH1 0x4 DUP1 CALLDATASIZE SUB DUP2 ADD SWAP1 PUSH2 0x131 SWAP2 SWAP1 PUSH2 0xA7F JUMP JUMPDEST PUSH2 0x403 JUMP JUMPDEST STOP JUMPDEST PUSH1 0x1 DUP1 SLOAD SWAP1 POP DUP2 LT PUSH2 0x17F JUMPI PUSH1 0x40 MLOAD PUSH32 0x8C379A000000000000000000000000000000000000000000000000000000000 DUP2 MSTORE PUSH1 0x4 ADD PUSH2 0x176 SWAP1 PUSH2 0xB10 JUMP JUMPDEST PUSH1 0x40 MLOAD DUP1 SWAP2 SUB SWAP1 REVERT JUMPDEST PUSH1 0x2 PUSH0 CALLER PUSH20 0xFFFFFFFFFFFFFFFFFFFFFFFFFFFFFFFFFFFFFFFF AND PUSH20 0xFFFFFFFFFFFFFFFFFFFFFFFFFFFFFFFFFFFFFFFF AND DUP2 MSTORE PUSH1 0x20 ADD SWAP1 DUP2 MSTORE PUSH1 0x20 ADD PUSH0 KECCAK256 PUSH0 SWAP1 SLOAD SWAP1 PUSH2 0x100 EXP SWAP1 DIV PUSH1 0xFF AND ISZERO PUSH2 0x209 JUMPI PUSH1 0x40 MLOAD PUSH32 0x8C379A000000000000000000000000000000000000000000000000000000000 DUP2 MSTORE PUSH1 0x4 ADD PUSH2 0x200 SWAP1 PUSH2 0xB78 JUMP JUMPDEST PUSH1 0x40 MLOAD DUP1 SWAP2 SUB SWAP1 REVERT JUMPDEST PUSH2 0x212 DUP2 PUSH2 0x579 JUMP JUMPDEST POP JUMP JUMPDEST PUSH1 0x60 PUSH0 DUP1 SLOAD DUP1 PUSH1 0x20 MUL PUSH1 0x20 ADD PUSH1 0x40 MLOAD SWAP1 DUP2 ADD PUSH1 0x40 MSTORE DUP1 SWAP3 SWAP2 SWAP1 DUP2 DUP2 MSTORE PUSH1 0x20 ADD DUP3 DUP1 SLOAD DUP1 ISZERO PUSH2 0x260 JUMPI PUSH1 0x20 MUL DUP3 ADD SWAP2 SWAP1 PUSH0 MSTORE PUSH1 0x20 PUSH0 KECCAK256 SWAP1 JUMPDEST DUP2 SLOAD DUP2 MSTORE PUSH1 0x20 ADD SWAP1 PUSH1 0x1 ADD SWAP1 DUP1 DUP4 GT PUSH2 0x24C JUMPI JUMPDEST POP POP POP POP POP SWAP1 POP SWAP1 JUMP JUMPDEST PUSH1 0x1 DUP2 DUP2 SLOAD DUP2 LT PUSH2 0x279 JUMPI PUSH0 DUP1 REVERT JUMPDEST SWAP1 PUSH0 MSTORE PUSH1 0x20 PUSH0 KECCAK256 ADD PUSH0 SWAP2 POP SWAP1 POP DUP1 SLOAD PUSH2 0x291 SWAP1 PUSH2 0xBC3 JUMP JUMPDEST DUP1 PUSH1 0x1F ADD PUSH1 0x20 DUP1 SWAP2 DIV MUL PUSH1 0x20 ADD PUSH1 0x40 MLOAD SWAP1 DUP2 ADD PUSH1 0x40 MSTORE DUP1 SWAP3 SWAP2 SWAP1 DUP2 DUP2 MSTORE PUSH1 0x20 ADD DUP3 DUP1 SLOAD PUSH2 0x2BD SWAP1 PUSH2 0xBC3 JUMP JUMPDEST DUP1 ISZERO PUSH2 0x308 JUMPI DUP1 PUSH1 0x1F LT PUSH2 0x2DF JUMPI PUSH2 0x100 DUP1 DUP4 SLOAD DIV MUL DUP4 MSTORE SWAP2 PUSH1 0x20 ADD SWAP2 PUSH2 0x308 JUMP JUMPDEST DUP3 ADD SWAP2 SWAP1 PUSH0 MSTORE PUSH1 0x20 PUSH0 KECCAK256 SWAP1 JUMPDEST DUP2 SLOAD DUP2 MSTORE SWAP1 PUSH1 0x1 ADD SWAP1 PUSH1 0x20 ADD DUP1 DUP4 GT PUSH2 0x2EB JUMPI DUP3 SWAP1 SUB PUSH1 0x1F AND DUP3 ADD SWAP2 JUMPDEST POP POP POP POP POP DUP2 JUMP JUMPDEST PUSH0 DUP2 DUP2 SLOAD DUP2 LT PUSH2 0x31E JUMPI PUSH0 DUP1 REVERT JUMPDEST SWAP1 PUSH0 MSTORE PUSH1 0x20 PUSH0 KECCAK256 ADD PUSH0 SWAP2 POP SWAP1 POP SLOAD DUP2 JUMP JUMPDEST PUSH1 0x60 PUSH1 0x1 DUP1 SLOAD DUP1 PUSH1 0x20 MUL PUSH1 0x20 ADD PUSH1 0x40 MLOAD SWAP1 DUP2 ADD PUSH1 0x40 MSTORE DUP1 SWAP3 SWAP2 SWAP1 DUP2 DUP2 MSTORE PUSH1 0x20 ADD PUSH0 SWAP1 JUMPDEST DUP3 DUP3 LT ISZERO PUSH2 0x3FA JUMPI DUP4 DUP3 SWAP1 PUSH0 MSTORE PUSH1 0x20 PUSH0 KECCAK256 ADD DUP1 SLOAD PUSH2 0x36F SWAP1 PUSH2 0xBC3 JUMP JUMPDEST DUP1 PUSH1 0x1F ADD PUSH1 0x20 DUP1 SWAP2 DIV MUL PUSH1 0x20 ADD PUSH1 0x40 MLOAD SWAP1 DUP2 ADD PUSH1 0x40 MSTORE DUP1 SWAP3 SWAP2 SWAP1 DUP2 DUP2 MSTORE PUSH1 0x20 ADD DUP3 DUP1 SLOAD PUSH2 0x39B SWAP1 PUSH2 0xBC3 JUMP JUMPDEST DUP1 ISZERO PUSH2 0x3E6 JUMPI DUP1 PUSH1 0x1F LT PUSH2 0x3BD JUMPI PUSH2 0x100 DUP1 DUP4 SLOAD DIV MUL DUP4 MSTORE SWAP2 PUSH1 0x20 ADD SWAP2 PUSH2 0x3E6 JUMP JUMPDEST DUP3 ADD SWAP2 SWAP1 PUSH0 MSTORE PUSH1 0x20 PUSH0 KECCAK256 SWAP1 JUMPDEST DUP2 SLOAD DUP2 MSTORE SWAP1 PUSH1 0x1 ADD SWAP1 PUSH1 0x20 ADD DUP1 DUP4 GT PUSH2 0x3C9 JUMPI DUP3 SWAP1 SUB PUSH1 0x1F AND DUP3 ADD SWAP2 JUMPDEST POP POP POP POP POP DUP2 MSTORE PUSH1 0x20 ADD SWAP1 PUSH1 0x1 ADD SWAP1 PUSH2 0x352 JUMP JUMPDEST POP POP POP POP SWAP1 POP SWAP1 JUMP JUMPDEST PUSH1 0x2 PUSH0 CALLER PUSH20 0xFFFFFFFFFFFFFFFFFFFFFFFFFFFFFFFFFFFFFFFF AND PUSH20 0xFFFFFFFFFFFFFFFFFFFFFFFFFFFFFFFFFFFFFFFF AND DUP2 MSTORE PUSH1 0x20 ADD SWAP1 DUP2 MSTORE PUSH1 0x20 ADD PUSH0 KECCAK256 PUSH0 SWAP1 SLOAD SWAP1 PUSH2 0x100 EXP SWAP1 DIV PUSH1 0xFF AND ISZERO PUSH2 0x48D JUMPI PUSH1 0x40 MLOAD PUSH32 0x8C379A000000000000000000000000000000000000000000000000000000000 DUP2 MSTORE PUSH1 0x4 ADD PUSH2 0x484 SWAP1 PUSH2 0xB78 JUMP JUMPDEST PUSH1 0x40 MLOAD DUP1 SWAP2 SUB SWAP1 REVERT JUMPDEST PUSH0 PUSH0 SWAP1 POP JUMPDEST PUSH1 0x1 DUP1 SLOAD SWAP1 POP DUP2 LT ISZERO PUSH2 0x572 JUMPI PUSH0 PUSH1 0x1 DUP3 DUP2 SLOAD DUP2 LT PUSH2 0x4B4 JUMPI PUSH2 0x4B3 PUSH2 0xBF3 JUMP JUMPDEST JUMPDEST SWAP1 PUSH0 MSTORE PUSH1 0x20 PUSH0 KECCAK256 ADD DUP1 SLOAD PUSH2 0x4C7 SWAP1 PUSH2 0xBC3 JUMP JUMPDEST DUP1 PUSH1 0x1F ADD PUSH1 0x20 DUP1 SWAP2 DIV MUL PUSH1 0x20 ADD PUSH1 0x40 MLOAD SWAP1 DUP2 ADD PUSH1 0x40 MSTORE DUP1 SWAP3 SWAP2 SWAP1 DUP2 DUP2 MSTORE PUSH1 0x20 ADD DUP3 DUP1 SLOAD PUSH2 0x4F3 SWAP1 PUSH2 0xBC3 JUMP JUMPDEST DUP1 ISZERO PUSH2 0x53E JUMPI DUP1 PUSH1 0x1F LT PUSH2 0x515 JUMPI PUSH2 0x100 DUP1 DUP4 SLOAD DIV MUL DUP4 MSTORE SWAP2 PUSH1 0x20 ADD SWAP2 PUSH2 0x53E JUMP JUMPDEST DUP3 ADD SWAP2 SWAP1 PUSH0 MSTORE PUSH1 0x20 PUSH0 KECCAK256 SWAP1 JUMPDEST DUP2 SLOAD DUP2 MSTORE SWAP1 PUSH1 0x1 ADD SWAP1 PUSH1 0x20 ADD DUP1 DUP4 GT PUSH2 0x521 JUMPI DUP3 SWAP1 SUB PUSH1 0x1F AND DUP3 ADD SWAP2 JUMPDEST POP POP POP POP POP SWAP1 POP PUSH2 0x54F DUP4 DUP3 PUSH2 0x618 JUMP JUMPDEST ISZERO PUSH2 0x564 JUMPI PUSH2 0x55D DUP3 PUSH2 0x579 JUMP JUMPDEST POP POP PUSH2 0x576 JUMP JUMPDEST POP DUP1 DUP1 PUSH1 0x1 ADD SWAP2 POP POP PUSH2 0x492 JUMP JUMPDEST PUSH0 PUSH0 REVERT JUMPDEST POP JUMP JUMPDEST PUSH1 0x1 PUSH1 0x2 PUSH0 CALLER PUSH20 0xFFFFFFFFFFFFFFFFFFFFFFFFFFFFFFFFFFFFFFFF AND PUSH20 0xFFFFFFFFFFFFFFFFFFFFFFFFFFFFFFFFFFFFFFFF AND DUP2 MSTORE PUSH1 0x20 ADD SWAP1 DUP2 MSTORE PUSH1 0x20 ADD PUSH0 KECCAK256 PUSH0 PUSH2 0x100 EXP DUP2 SLOAD DUP2 PUSH1 0xFF MUL NOT AND SWAP1 DUP4 ISZERO ISZERO MUL OR SWAP1 SSTORE POP PUSH1 0x1 PUSH0 DUP3 DUP2 SLOAD DUP2 LT PUSH2 0x5E3 JUMPI PUSH2 0x5E2 PUSH2 0xBF3 JUMP JUMPDEST JUMPDEST SWAP1 PUSH0 MSTORE PUSH1 0x20 PUSH0 KECCAK256 ADD SLOAD PUSH2 0x5F6 SWAP2 SWAP1 PUSH2 0xC4D JUMP JUMPDEST PUSH0 DUP3 DUP2 SLOAD DUP2 LT PUSH2 0x609 JUMPI PUSH2 0x608 PUSH2 0xBF3 JUMP JUMPDEST JUMPDEST SWAP1 PUSH0 MSTORE PUSH1 0x20 PUSH0 KECCAK256 ADD DUP2 SWAP1 SSTORE POP POP JUMP JUMPDEST PUSH0 DUP2 DUP1 MLOAD SWAP1 PUSH1 0x20 ADD KECCAK256 DUP4 DUP1 MLOAD SWAP1 PUSH1 0x20 ADD KECCAK256 EQ SWAP1 POP SWAP3 SWAP2 POP POP JUMP JUMPDEST PUSH0 PUSH1 0x40 MLOAD SWAP1 POP SWAP1 JUMP JUMPDEST PUSH0 PUSH0 REVERT JUMPDEST PUSH0 PUSH0 REVERT JUMPDEST PUSH0 DUP2 SWAP1 POP SWAP2 SWAP1 POP JUMP JUMPDEST PUSH2 0x655 DUP2 PUSH2 0x643 JUMP JUMPDEST DUP2 EQ PUSH2 0x65F JUMPI PUSH0 PUSH0 REVERT JUMPDEST POP JUMP JUMPDEST PUSH0 DUP2 CALLDATALOAD SWAP1 POP PUSH2 0x670 DUP2 PUSH2 0x64C JUMP JUMPDEST SWAP3 SWAP2 POP POP JUMP JUMPDEST PUSH0 PUSH1 0x20 DUP3 DUP5 SUB SLT ISZERO PUSH2 0x68B JUMPI PUSH2 0x68A PUSH2 0x63B JUMP JUMPDEST JUMPDEST PUSH0 PUSH2 0x698 DUP5 DUP3 DUP6 ADD PUSH2 0x662 JUMP JUMPDEST SWAP2 POP POP SWAP3 SWAP2 POP POP JUMP JUMPDEST PUSH0 DUP2 MLOAD SWAP1 POP SWAP2 SWAP1 POP JUMP JUMPDEST PUSH0 DUP3 DUP3 MSTORE PUSH1 0x20 DUP3 ADD SWAP1 POP SWAP3 SWAP2 POP POP JUMP JUMPDEST PUSH0 DUP2 SWAP1 POP PUSH1 0x20 DUP3 ADD SWAP1 POP SWAP2 SWAP1 POP JUMP JUMPDEST PUSH2 0x6D3 DUP2 PUSH2 0x643 JUMP JUMPDEST DUP3 MSTORE POP POP JUMP JUMPDEST PUSH0 PUSH2 0x6E4 DUP4 DUP4 PUSH2 0x6CA JUMP JUMPDEST PUSH1 0x20 DUP4 ADD SWAP1 POP SWAP3 SWAP2 POP POP JUMP JUMPDEST PUSH0 PUSH1 0x20 DUP3 ADD SWAP1 POP SWAP2 SWAP1 POP JUMP JUMPDEST PUSH0 PUSH2 0x706 DUP3 PUSH2 0x6A1 JUMP JUMPDEST PUSH2 0x710 DUP2 DUP6 PUSH2 0x6AB JUMP JUMPDEST SWAP4 POP PUSH2 0x71B DUP4 PUSH2 0x6BB JUMP JUMPDEST DUP1 PUSH0 JUMPDEST DUP4 DUP2 LT ISZERO PUSH2 0x74B JUMPI DUP2 MLOAD PUSH2 0x732 DUP9 DUP3 PUSH2 0x6D9 JUMP JUMPDEST SWAP8 POP PUSH2 0x73D DUP4 PUSH2 0x6F0 JUMP JUMPDEST SWAP3 POP POP PUSH1 0x1 DUP2 ADD SWAP1 POP PUSH2 0x71E JUMP JUMPDEST POP DUP6 SWAP4 POP POP POP POP SWAP3 SWAP2 POP POP JUMP JUMPDEST PUSH0 PUSH1 0x20 DUP3 ADD SWAP1 POP DUP2 DUP2 SUB PUSH0 DUP4 ADD MSTORE PUSH2 0x770 DUP2 DUP5 PUSH2 0x6FC JUMP JUMPDEST SWAP1 POP SWAP3 SWAP2 POP POP JUMP JUMPDEST PUSH0 DUP2 MLOAD SWAP1 POP SWAP2 SWAP1 POP JUMP JUMPDEST PUSH0 DUP3 DUP3 MSTORE PUSH1 0x20 DUP3 ADD SWAP1 POP SWAP3 SWAP2 POP POP JUMP JUMPDEST DUP3 DUP2 DUP4 MCOPY PUSH0 DUP4 DUP4 ADD MSTORE POP POP POP JUMP JUMPDEST PUSH0 PUSH1 0x1F NOT PUSH1 0x1F DUP4 ADD AND SWAP1 POP SWAP2 SWAP1 POP JUMP JUMPDEST PUSH0 PUSH2 0x7BA DUP3 PUSH2 0x778 JUMP JUMPDEST PUSH2 0x7C4 DUP2 DUP6 PUSH2 0x782 JUMP JUMPDEST SWAP4 POP PUSH2 0x7D4 DUP2 DUP6 PUSH1 0x20 DUP7 ADD PUSH2 0x792 JUMP JUMPDEST PUSH2 0x7DD DUP2 PUSH2 0x7A0 JUMP JUMPDEST DUP5 ADD SWAP2 POP POP SWAP3 SWAP2 POP POP JUMP JUMPDEST PUSH0 PUSH1 0x20 DUP3 ADD SWAP1 POP DUP2 DUP2 SUB PUSH0 DUP4 ADD MSTORE PUSH2 0x800 DUP2 DUP5 PUSH2 0x7B0 JUMP JUMPDEST SWAP1 POP SWAP3 SWAP2 POP POP JUMP JUMPDEST PUSH2 0x811 DUP2 PUSH2 0x643 JUMP JUMPDEST DUP3 MSTORE POP POP JUMP JUMPDEST PUSH0 PUSH1 0x20 DUP3 ADD SWAP1 POP PUSH2 0x82A PUSH0 DUP4 ADD DUP5 PUSH2 0x808 JUMP JUMPDEST SWAP3 SWAP2 POP POP JUMP JUMPDEST PUSH0 DUP2 MLOAD SWAP1 POP SWAP2 SWAP1 POP JUMP JUMPDEST PUSH0 DUP3 DUP3 MSTORE PUSH1 0x20 DUP3 ADD SWAP1 POP SWAP3 SWAP2 POP POP JUMP JUMPDEST PUSH0 DUP2 SWAP1 POP PUSH1 0x20 DUP3 ADD SWAP1 POP SWAP2 SWAP1 POP JUMP JUMPDEST PUSH0 DUP3 DUP3 MSTORE PUSH1 0x20 DUP3 ADD SWAP1 POP SWAP3 SWAP2 POP POP JUMP JUMPDEST PUSH0 PUSH2 0x873 DUP3 PUSH2 0x778 JUMP JUMPDEST PUSH2 0x87D DUP2 DUP6 PUSH2 0x859 JUMP JUMPDEST SWAP4 POP PUSH2 0x88D DUP2 DUP6 PUSH1 0x20 DUP7 ADD PUSH2 0x792 JUMP JUMPDEST PUSH2 0x896 DUP2 PUSH2 0x7A0 JUMP JUMPDEST DUP5 ADD SWAP2 POP POP SWAP3 SWAP2 POP POP JUMP JUMPDEST PUSH0 PUSH2 0x8AC DUP4 DUP4 PUSH2 0x869 JUMP JUMPDEST SWAP1 POP SWAP3 SWAP2 POP POP JUMP JUMPDEST PUSH0 PUSH1 0x20 DUP3 ADD SWAP1 POP SWAP2 SWAP1 POP JUMP JUMPDEST PUSH0 PUSH2 0x8CA DUP3 PUSH2 0x830 JUMP JUMPDEST PUSH2 0x8D4 DUP2 DUP6 PUSH2 0x83A JUMP JUMPDEST SWAP4 POP DUP4 PUSH1 0x20 DUP3 MUL DUP6 ADD PUSH2 0x8E6 DUP6 PUSH2 0x84A JUMP JUMPDEST DUP1 PUSH0 JUMPDEST DUP6 DUP2 LT ISZERO PUSH2 0x921 JUMPI DUP5 DUP5 SUB DUP10 MSTORE DUP2 MLOAD PUSH2 0x902 DUP6 DUP3 PUSH2 0x8A1 JUMP JUMPDEST SWAP5 POP PUSH2 0x90D DUP4 PUSH2 0x8B4 JUMP JUMPDEST SWAP3 POP PUSH1 0x20 DUP11 ADD SWAP10 POP POP PUSH1 0x1 DUP2 ADD SWAP1 POP PUSH2 0x8E9 JUMP JUMPDEST POP DUP3 SWAP8 POP DUP8 SWAP6 POP POP POP POP POP POP SWAP3 SWAP2 POP POP JUMP JUMPDEST PUSH0 PUSH1 0x20 DUP3 ADD SWAP1 POP DUP2 DUP2 SUB PUSH0 DUP4 ADD MSTORE PUSH2 0x94B DUP2 DUP5 PUSH2 0x8C0 JUMP JUMPDEST SWAP1 POP SWAP3 SWAP2 POP POP JUMP JUMPDEST PUSH0 PUSH0 REVERT JUMPDEST PUSH0 PUSH0 REVERT JUMPDEST PUSH32 0x4E487B7100000000000000000000000000000000000000000000000000000000 PUSH0 MSTORE PUSH1 0x41 PUSH1 0x4 MSTORE PUSH1 0x24 PUSH0 REVERT JUMPDEST PUSH2 0x991 DUP3 PUSH2 0x7A0 JUMP JUMPDEST DUP2 ADD DUP2 DUP2 LT PUSH8 0xFFFFFFFFFFFFFFFF DUP3 GT OR ISZERO PUSH2 0x9B0 JUMPI PUSH2 0x9AF PUSH2 0x95B JUMP JUMPDEST JUMPDEST DUP1 PUSH1 0x40 MSTORE POP POP POP JUMP JUMPDEST PUSH0 PUSH2 0x9C2 PUSH2 0x632 JUMP JUMPDEST SWAP1 POP PUSH2 0x9CE DUP3 DUP3 PUSH2 0x988 JUMP JUMPDEST SWAP2 SWAP1 POP JUMP JUMPDEST PUSH0 PUSH8 0xFFFFFFFFFFFFFFFF DUP3 GT ISZERO PUSH2 0x9ED JUMPI PUSH2 0x9EC PUSH2 0x95B JUMP JUMPDEST JUMPDEST PUSH2 0x9F6 DUP3 PUSH2 0x7A0 JUMP JUMPDEST SWAP1 POP PUSH1 0x20 DUP2 ADD SWAP1 POP SWAP2 SWAP1 POP JUMP JUMPDEST DUP3 DUP2 DUP4 CALLDATACOPY PUSH0 DUP4 DUP4 ADD MSTORE POP POP POP JUMP JUMPDEST PUSH0 PUSH2 0xA23 PUSH2 0xA1E DUP5 PUSH2 0x9D3 JUMP JUMPDEST PUSH2 0x9B9 JUMP JUMPDEST SWAP1 POP DUP3 DUP2 MSTORE PUSH1 0x20 DUP2 ADD DUP5 DUP5 DUP5 ADD GT ISZERO PUSH2 0xA3F JUMPI PUSH2 0xA3E PUSH2 0x957 JUMP JUMPDEST JUMPDEST PUSH2 0xA4A DUP5 DUP3 DUP6 PUSH2 0xA03 JUMP JUMPDEST POP SWAP4 SWAP3 POP POP POP JUMP JUMPDEST PUSH0 DUP3 PUSH1 0x1F DUP4 ADD SLT PUSH2 0xA66 JUMPI PUSH2 0xA65 PUSH2 0x953 JUMP JUMPDEST JUMPDEST DUP2 CALLDATALOAD PUSH2 0xA76 DUP5 DUP3 PUSH1 0x20 DUP7 ADD PUSH2 0xA11 JUMP JUMPDEST SWAP2 POP POP SWAP3 SWAP2 POP POP JUMP JUMPDEST PUSH0 PUSH1 0x20 DUP3 DUP5 SUB SLT ISZERO PUSH2 0xA94 JUMPI PUSH2 0xA93 PUSH2 0x63B JUMP JUMPDEST JUMPDEST PUSH0 DUP3 ADD CALLDATALOAD PUSH8 0xFFFFFFFFFFFFFFFF DUP2 GT ISZERO PUSH2 0xAB1 JUMPI PUSH2 0xAB0 PUSH2 0x63F JUMP JUMPDEST JUMPDEST PUSH2 0xABD DUP5 DUP3 DUP6 ADD PUSH2 0xA52 JUMP JUMPDEST SWAP2 POP POP SWAP3 SWAP2 POP POP JUMP JUMPDEST PUSH32 0x496E76616C6964206F7074696F6E000000000000000000000000000000000000 PUSH0 DUP3 ADD MSTORE POP JUMP JUMPDEST PUSH0 PUSH2 0xAFA PUSH1 0xE DUP4 PUSH2 0x782 JUMP JUMPDEST SWAP2 POP PUSH2 0xB05 DUP3 PUSH2 0xAC6 JUMP JUMPDEST PUSH1 0x20 DUP3 ADD SWAP1 POP SWAP2 SWAP1 POP JUMP JUMPDEST PUSH0 PUSH1 0x20 DUP3 ADD SWAP1 POP DUP2 DUP2 SUB PUSH0 DUP4 ADD MSTORE PUSH2 0xB27 DUP2 PUSH2 0xAEE JUMP JUMPDEST SWAP1 POP SWAP2 SWAP1 POP JUMP JUMPDEST PUSH32 0x416C726561647920766F74656400000000000000000000000000000000000000 PUSH0 DUP3 ADD MSTORE POP JUMP JUMPDEST PUSH0 PUSH2 0xB62 PUSH1 0xD DUP4 PUSH2 0x782 JUMP JUMPDEST SWAP2 POP PUSH2 0xB6D DUP3 PUSH2 0xB2E JUMP JUMPDEST PUSH1 0x20 DUP3 ADD SWAP1 POP SWAP2 SWAP1 POP JUMP JUMPDEST PUSH0 PUSH1 0x20 DUP3 ADD SWAP1 POP DUP2 DUP2 SUB PUSH0 DUP4 ADD MSTORE PUSH2 0xB8F DUP2 PUSH2 0xB56 JUMP JUMPDEST SWAP1 POP SWAP2 SWAP1 POP JUMP JUMPDEST PUSH32 0x4E487B7100000000000000000000000000000000000000000000000000000000 PUSH0 MSTORE PUSH1 0x22 PUSH1 0x4 MSTORE PUSH1 0x24 PUSH0 REVERT JUMPDEST PUSH0 PUSH1 0x2 DUP3 DIV SWAP1 POP PUSH1 0x1 DUP3 AND DUP1 PUSH2 0xBDA JUMPI PUSH1 0x7F DUP3 AND SWAP2 POP JUMPDEST PUSH1 0x20 DUP3 LT DUP2 SUB PUSH2 0xBED JUMPI PUSH2 0xBEC PUSH2 0xB96 JUMP JUMPDEST JUMPDEST POP SWAP2 SWAP1 POP JUMP JUMPDEST PUSH32 0x4E487B7100000000000000000000000000000000000000000000000000000000 PUSH0 MSTORE PUSH1 0x32 PUSH1 0x4 MSTORE PUSH1 0x24 PUSH0 REVERT JUMPDEST PUSH32 0x4E487B7100000000000000000000000000000000000000000000000000000000 PUSH0 MSTORE PUSH1 0x11 PUSH1 0x4 MSTORE PUSH1 0x24 PUSH0 REVERT JUMPDEST PUSH0 PUSH2 0xC57 DUP3 PUSH2 0x643 JUMP JUMPDEST SWAP2 POP PUSH2 0xC62 DUP4 PUSH2 0x643 JUMP JUMPDEST SWAP3 POP DUP3 DUP3 ADD SWAP1 POP DUP1 DUP3 GT ISZERO PUSH2 0xC7A JUMPI PUSH2 0xC79 PUSH2 0xC20 JUMP JUMPDEST JUMPDEST SWAP3 SWAP2 POP POP JUMP INVALID LOG2 PUSH5 0x6970667358 0x22 SLT KECCAK256 0xD6 PUSH26 0x3BD48CF0025B51E7A537BBAAA32073BD4FF348F5A470B9A68888 0xE9 SAR 0x27 SELFDESTRUCT PUSH5 0x736F6C6343 STOP ADDMOD 0x1E STOP CALLER "
				},
				"gasEstimates": {
					"creation": {
						"codeDepositCost": "650800",
						"executionCost": "infinite",
						"totalCost": "infinite"
					},
					"external": {
						"getOptions()": "infinite",
						"getVotes()": "infinite",
						"options(uint256)": "infinite",
						"vote(string)": "infinite",
						"vote(uint256)": "infinite",
						"votes(uint256)": "infinite"
					},
					"internal": {
						"recordVote(uint256)": "infinite",
						"stringEqual(string memory,string memory)": "infinite"
					}
				},
				"methodIdentifiers": {
					"getOptions()": "cc2ee196",
					"getVotes()": "0dc96015",
					"options(uint256)": "409e2205",
					"vote(string)": "fc36e15b",
					"vote(uint256)": "0121b93f",
					"votes(uint256)": "5df81330"
				}
			},
			"storageLayout": {
				"storage": [
					{
						"astId": 4,
						"contract": "Voter.sol:Voter",
						"label": "votes",
						"offset": 0,
						"slot": "0",
						"type": "t_array(t_uint256)dyn_storage"
					},
					{
						"astId": 7,
						"contract": "Voter.sol:Voter",
						"label": "options",
						"offset": 0,
						"slot": "1",
						"type": "t_array(t_string_storage)dyn_storage"
					},
					{
						"astId": 11,
						"contract": "Voter.sol:Voter",
						"label": "hasVoted",
						"offset": 0,
						"slot": "2",
						"type": "t_mapping(t_address,t_bool)"
					}
				],
				"types": {
					"t_address": {
						"encoding": "inplace",
						"label": "address",
						"numberOfBytes": "20"
					},
					"t_array(t_string_storage)dyn_storage": {
						"base": "t_string_storage",
						"encoding": "dynamic_array",
						"label": "string[]",
						"numberOfBytes": "32"
					},
					"t_array(t_uint256)dyn_storage": {
						"base": "t_uint256",
						"encoding": "dynamic_array",
						"label": "uint256[]",
						"numberOfBytes": "32"
					},
					"t_bool": {
						"encoding": "inplace",
						"label": "bool",
						"numberOfBytes": "1"
					},
					"t_mapping(t_address,t_bool)": {
						"encoding": "mapping",
						"key": "t_address",
						"label": "mapping(address => bool)",
						"numberOfBytes": "32",
						"value": "t_bool"
					},
					"t_string_storage": {
						"encoding": "bytes",
						"label": "string",
						"numberOfBytes": "32"
					},
					"t_uint256": {
						"encoding": "inplace",
						"label": "uint256",
						"numberOfBytes": "32"
					}
				}
			},
			"userdoc": {
				"kind": "user",
				"methods": {},
				"version": 1
			}
		}
	}
}